:020000040800F2
:10000000D007002035020008C3180008BB180008FC
:10001000BF180008BD040008D91F00080000000038
:100020000000000000000000000000002919000886
:10003000C104000800000000C51800082B190008C2
:100040004F0200084F0200084F0200084F0200084C
:100050004F0200084F0200084F0200084F0200083C
:100060004F0200084F0200084F0200084F0200082C
:100070004F0200084F0200084F0200084F0200081C
:100080004F0200084F0200084F0200080000000065
:100090000000000000000000000000004F02000807
:1000A0004F0200086D1A00084F0200084F020008B6
:1000B0004F0200084F0200084F0200084F020008DC
:1000C0004F0200084F0200084F0200084F020008CC
:1000D0004F020008C91F00084F020008000000007E
:1000E0004F0200084F0200084F0200080000000005
:1000F0000000000000000000000000004F020008A7
:10010000000000004F0200084F0200084F020008E4
:1001100000000000000000000000000000000000DF
:100120004F0200084F0200084F0200084F0200086B
:100130004F02000800000000000000000000000066
:100140000000000000000000000000004F02000856
:100150004F0200084F0200084F0200084F0200083B
:100160004F0200084F0200080000000000000000DD
:10017000000000000000000000000000000000007F
:10018000000000004F020008000000000000000016
:100190004F02000800F002F800F03CF80AA090E8D6
:1001A000000C82448344AAF10107DA4501D100F032
:1001B00031F8AFF2090EBAE80F0013F0010F18BFC3
:1001C000FB1A43F001031847A81F0000C81F0000D6
:1001D000103A24BF78C878C1FAD8520724BF30C873
:1001E00030C144BF04680C60704700000023002445
:1001F00000250026103A28BF78C1FBD8520728BF37
:1002000030C148BF0B6070471FB501F09FFF1FBD95
:1002100010B510BD00F00CF91146FFF7F5FF01F025
:1002200037FF00F03EF903B4FFF7F2FF03BC01F023
:10023000F1FE00000948804709480047FEE7FEE755
:10024000FEE7FEE7FEE7FEE7FEE7FEE7FEE7FEE786
:1002500004480549054A064B70470000F919000893
:1002600095010008D0010020D0070020D003002015
:10027000D0030020704753EA020C00F069802DE99A
:10028000F04B4FF00006002B1FBFB3FA83F503FAC3
:1002900005F424FA05F65E4012BF1643B2FA82F561
:1002A00002FA05F4C5F120051EBF22FA05FC44EA56
:1002B0000C04203556EA044C4FEA144418BF641C61
:1002C0004FF000084FF00009904271EB030C39D356
:1002D000002919BFB1FA81F701FA07F6B0FA80F7E1
:1002E00000FA07F6C7F120071EBF20FA07FC46EA0E
:1002F0000C062037B6FBF4FCA7EB0507103F07F010
:100300001F0BCBF120060CFA0BFB2CFA06F644BFB0
:10031000B3460026202FA4BF5E464FF0000B5BEAD9
:10032000060C08BF4FF0010B19EB0B09ABFB027C6D
:1003300048EB0608C01B06FB02CC0BFB03CC71EBA1
:100340000C01C1E70B46024641464846BDE8F08B2A
:1003500013B54FF000004FF00001AFF30080BDE88F
:100360001C4070470FB4044910B503AA029800F06E
:1003700031F810BC5DF814FB040000204FF00002BF
:1003800000B5134694469646203922BFA0E80C508B
:10039000A0E80C50B1F12001BFF4F7AF090728BF66
:1003A000A0E80C5048BF0CC05DF804EB890028BFE2
:1003B00040F8042B08BF704748BF20F8022B11F00B
:1003C000804F18BF00F8012B704770477047704787
:1003D00070470000074B70B50D467B4400F011F8E4
:1003E0000446284600F020F810B14FF0FF3070BDF1
:1003F000204670BD3B1C000001694A1C0261087860
:10040000704700B58FB0CDE9013100210591054954
:100410007944CDE903101146684600F02EF80FB07C
:1004200000BD0000E5FFFFFF007B00F0800070478B
:10043000754600F03FF8AE4605006946534620F089
:100440000700854618B020B5FFF702FFBDE8204041
:100450004FF000064FF000074FF000084FF0000B80
:1004600021F00701AC46ACE8C009ACE8C009ACE833
:10047000C009ACE8C0098D4670472DE9F041064639
:100480000024D6E90170F5688046304603E0414615
:10049000B847641C3046A8470028F8D12046BDE87C
:1004A000F08110B50446AFF300802046BDE810404F
:1004B000FFF7B9BE004870477001002000BFFEE79B
:1004C000704770B50446A56D00F05AF9064694F8D9
:1004D0003500022808D08020606500BF002084F825
:1004E000340000BF012070BD2068006820F01600B5
:1004F000216808602068406920F080002168486118
:10050000206C08B9A06C28B12068006820F00800B1
:10051000216808602068006820F0010021680860F8
:1005200010E000F02DF9801B05280BD92020606514
:10053000032084F8350000BF002084F8340000BF99
:100540000320D0E72068006800F001000028E8D10F
:1005500094F85C103F208840A860012084F83500A2
:1005600000BF002084F8340000BF00BFBBE7014695
:1005700091F83500022803D080204865012070479B
:10058000052081F835000868006820F001000A683D
:1005900010600020F3E70000F8B502460B46002586
:1005A000002400200021C7E0012606FA01F51E689C
:1005B00006EA0504AC4274D11E7906F00306012E4A
:1005C00004D01E7906F00306022E13D190684F0066
:1005D0000326BE40B0434F00DE68BE40304390600B
:1005E000506801268E40B0431E79C6F300168E4037
:1005F000304350601E7906F00306032E09D0D06800
:100600004F000326BE40B0434F009E68BE403043BB
:10061000D0601E7906F00306022E13D1CF0802F136
:10062000200656F827004E07F70E0F26BE40B043AF
:100630004F07FF0E1E69BE403043CF0802F120066F
:1006400046F8270010684F000326BE40B0431E79CD
:1006500006F003064F00BE40304310605E6806F4AB
:100660004036002E67D000BF00260096344E366814
:1006700046F48046324F3E603E46366806F4804679
:10068000009600BF00BF2F4E8F0856F827008E0738
:10069000370F0F26BE40B0432B4EB24202D1002688
:1006A00015E048E0294EB24201D101260FE0284E64
:1006B000B24201D102260AE0264EB24201D10326FF
:1006C00005E0254EB24201D1042600E007268F073F
:1006D0003F0FBE4030431B4E8F0846F827001F4E89
:1006E0003068A0435E6806F4801606B120431B4EB6
:1006F0003060361D3068A0435E6806F4001606B10F
:100700002043164E361D3060144E361F3068A0430D
:100710005E6806F4003606B12043104E361F306086
:10072000361F3068A0435E6806F4803606B1204369
:100730000A4E083E3060491C1029FFF435AFF8BD61
:1007400044380240083801400000024000040240E2
:1007500000080240000C024000100240083C01402A
:1007600010B5426921EA020302EA010443EA0443A4
:10077000836110BD0AB1816101E00B0483617047A0
:1007800001480068704700000C0000200348006822
:100790000349097808440149086070470C000020AB
:1007A0001400002010B50D48006840F400700B499B
:1007B00008600846006840F48060086008460068E9
:1007C00040F480700860032000F084F80F2000F0EF
:1007D00007F800F02BF8002010BD0000003C02409C
:1007E00070B504460E4800784FF47A71B1FBF0F012
:1007F0000C490968B1FBF0F5284600F06DFC08B122
:10080000012070BD102C07D200222146501E00F09E
:1008100022F80548046001E00120F2E70020F0E73B
:100820001400002000000020100000207047014646
:10083000084600280DDB00BF00BF00F01F030122A7
:100840009A4043099B0003F1E023C3F8002100BF55
:1008500000BF00BF70472DE9F05F80460D46164689
:10086000002701F0BBFB074639462A46334601F014
:100870000700C0F1070ABAF1040F02D94FF0040AC9
:1008800001E0C0F1070AD14600F1040ABAF1070FEE
:1008900002D24FF0000A01E0A0F1030AD4464FF063
:1008A000010A0AFA09FAAAF1010A0AEA020A0AFA8C
:1008B0000CFA4FF0010B0BFA0CFBABF1010B0BEA3E
:1008C000030B4AEA0B042146404601F08FFBBDE8CA
:1008D000F09F000000BF00F00702064B19684FF6BA
:1008E000FF031940044B0B4343EA0221014B1960FB
:1008F00000BF70470CED00E00000FA0570B504463B
:100900000D460CB9012070BD5848006800F0070082
:10091000A84209D255490D700846006800F007004A
:10092000A84201D00120EEE7207800F00200022862
:100930001DD1207800F00400042805D14C4800683F
:1009400040F4E0504A490860207800F00800082888
:1009500005D14748006840F4604045490860444874
:10096000006820F0F000A168084341490860207841
:1009700000F00100A8B36068012807D13C4808389E
:100980000068C0F34040B8B90120BCE760680228A5
:1009900002D06068032807D1354808380068C0F3E2
:1009A000406048B90120AEE7314808380068C0F31C
:1009B000400008B90120A6E72D48006820F0030098
:1009C000616808432A490860FFF7DAFE064609E035
:1009D000FFF7D6FE801B41F28831884202D90320FE
:1009E00091E707E02248006800F00C006168B0EB76
:1009F000810FEDD11D48006800F00700A84209D919
:100A00001A490D700846006800F00700A84201D09E
:100A1000012078E7207800F00400042807D114486A
:100A2000006820F4E050E16808431149086020782C
:100A300000F00800082808D10D48006820F4604044
:100A4000216940EAC1000A49086000F03FF80849FE
:100A50000968C1F30311074A515CC84006490860A0
:100A600006480068FFF7BCFE00204CE7003C02404F
:100A70000838024056210008000000201000002025
:100A800001480068704700000000002000B5FFF733
:100A9000F7FF04490968C1F38221034A515CC84049
:100AA00000BD0000083802406621000800B5FFF7CD
:100AB000E7FF04490968C1F34231034A515CC84069
:100AC00000BD000008380240662100082DE9F0470B
:100AD000002400250026A1462548006800F00C00EF
:100AE00020B1042805D008283AD105E0DFF8849029
:100AF00039E0DFF8849036E01D48001F006800F000
:100B00003F041B48001F006800F4800078B11A48B9
:100B10001749091F0968C1F38811A0FB017001463C
:100B2000224600233846FFF7A6FB05460EE0114893
:100B30000F49091F0968C1F38811A0FB0170014624
:100B4000224600233846FFF796FB05460848001F5B
:100B50000068C0F30140401C4600B5FBF6F902E016
:100B6000DFF8109000BF00BF4846BDE8F0870000E6
:100B7000083802400024F40040787D0170B586B04A
:100B800006460C46154646BB00BF0020009028488C
:100B9000006840F00100264908600846006800F03F
:100BA0000100009000BF00BF881501900220029054
:100BB0000320049000200390059001A91D48FFF731
:100BC000EBFC1B482838006820F0EC6044EA050183
:100BD000084317492839086027E000BF002000902B
:100BE0001348006840F00400114908600846006896
:100BF00000F00400009000BF00BF481501900220E3
:100C000002900320049000200390059001A90A4857
:100C1000FFF7C2FC06482838006820F0784044EA14
:100C2000C501084302492839086006B070BD0000BC
:100C3000303802400000024000080240F8B5044687
:100C40000CB90120F8BD207800F00100002874D014
:100C5000F948006800F00C0004280DD0F648006840
:100C600000F00C00082813D1F348001F006800F4BE
:100C70008000B0F5800F0BD1EF4808380068C0F352
:100C80004040002859D06068002856D10120D9E79B
:100C900000BF6068B0F5803F08D1E74808380068B9
:100CA00040F48030E449083908601EE06068B0F51F
:100CB000A02F0DD1E0480838006840F48020DE49BC
:100CC000083908600846006840F4803008600CE08D
:100CD000D9480838006820F48030D74908390860BE
:100CE0000846006820F48020086000BF606890B16A
:100CF000FFF746FD054606E0FFF742FD401B64286E
:100D000001D903209EE7CC4808380068C0F3404072
:100D10000028F1D011E0FFF733FD054606E0FFF7AC
:100D20002FFD401B642801D903208BE7C2480838F7
:100D30000068C0F340400028F1D1207800F00200A4
:100D400002285FD1BC48006800F00C0058B1BA48D6
:100D5000006800F00C0008281CD1B748001F00688C
:100D600000F48000B0B9B44808380068C0F340000F
:100D700020B1E068012801D0012063E7AE480838BF
:100D8000006820F0F800216940EAC100AA4908394A
:100D9000086037E0E06800B30120A8490860FFF769
:100DA000EFFC054606E0FFF7EBFC401B022801D9EB
:100DB000032047E7A04808380068C0F34000002837
:100DC000F1D09D480838006820F0F800216940EA19
:100DD000C10099490839086014E00020974908606B
:100DE000FFF7CEFC054606E0FFF7CAFC401B0228D1
:100DF00001D9032026E7904808380068C0F3400076
:100E00000028F1D1207800F0080008282CD1606972
:100E1000A8B101208A490860FFF7B2FC054606E048
:100E2000FFF7AEFC401B022801D903200AE78248E5
:100E30006C300068C0F340000028F1D014E00020BE
:100E40007F490860FFF79CFC054606E0FFF798FC29
:100E5000401B022801D90320F4E677486C30006873
:100E6000C0F340000028F1D1207800F004000428ED
:100E700070D1002770483830006800F0805090B979
:100E800000BF002000906C483830006840F080506F
:100E90006949383108600846006800F080500090C9
:100EA00000BF00BF01276748006800F48070B0B938
:100EB0006448006840F4807062490860FFF760FC95
:100EC000054606E0FFF75CFC401B022801D9032021
:100ED000B8E65C48006800F480700028F2D000BFDB
:100EE000A068012808D154486830006840F001002B
:100EF0005149683108601DE0A06805280DD14E48B1
:100F00006830006840F004004B49683108600846CA
:100F1000006840F0010008600CE047486830006855
:100F200020F001004449683108600846006820F05C
:100F30000400086000BFA068A8B1FFF721FC0546C7
:100F400009E0FFF71DFC401B41F28831884202D9BD
:100F5000032077E626E0384868300068C0F3400098
:100F60000028EED013E0FFF70BFC054608E0FFF782
:100F700007FC401B41F28831884201D9032061E619
:100F80002D4868300068C0F340000028EFD1012FE1
:100F900007D129483830006820F080502649383180
:100FA000086000BFA069002845D02348006800F011
:100FB0000C0008285DD0A069022845D100201F49F7
:100FC0000866FFF7DDFB054606E0FFF7D9FB401B8F
:100FD000022801D9032035E6174808380068C0F315
:100FE00040600028F1D1D4E907010843616A40EA72
:100FF00081110122A06AC2EB500041EA00412C207D
:10100000005D41EA00600C49091F086001200B499E
:101010000866FFF7B5FB054606E0FFF7B1FB401B8E
:10102000022801D903200DE6034808380068C0F300
:1010300040600028F1D049E00838024000004742F3
:10104000800E474200700040002021490866FFF7EB
:1010500097FB054606E0FFF793FB401B022801D9EA
:101060000320EFE51B480068C0F340600028F2D180
:101070002CE0A069012800D1E4E51648001D0668AF
:10108000A069012820D006F48001E06981421BD1CB
:1010900006F03F01206A814216D147F6C070304009
:1010A000616AB0EB811F0FD106F440310122A06AC2
:1010B000C2EB5000B1EB004F06D106F070612C205E
:1010C000005DB1EB006F01D00120BBE50020B9E568
:1010D000000047420038024070B504462546681EAD
:1010E000B0F1807F01D301200FE0681E4FF0E021B6
:1010F00048610F214FF0FF3000F078FF00204FF0E3
:10110000E021886107200861002070BD70477047AA
:1011100010B504460CB9012010BD94F83D0028B963
:10112000002084F83C00204600F026F8022084F8D5
:101130003D00211D206800F0B9FC012084F8460024
:1011400000BF84F83E0001213F2001554020015599
:101150004120015500BF00BF012084F84200432018
:101160000155442001554520015500BF012084F858
:101170003D000020D0E7000038B504460C49206847
:10118000884214D100BF002000900A48006840F453
:101190000030084908600846006800F400300090FC
:1011A00000BF00BF052211461920FFF754FB38BDD0
:1011B0000044014044380240014691F83D000128B6
:1011C00001D001207047022081F83D000868C06806
:1011D00040F001000B68D860164B0868984213D0A5
:1011E0000868B0F1804F0FD0134B086898420BD0BD
:1011F000124B0868984207D0114B0868984203D0F8
:10120000104B086898420CD10868806800F007020B
:10121000062A0CD00868006840F001000B681860CE
:1012200005E00868006840F001000B6818600020C5
:10123000C8E7000000000140000400400008004032
:10124000000C004000400140704770B50446206823
:10125000C5682068066906F00200022819D105F069
:101260000200022815D1401F216808610120207763
:101270002068806900F0030018B12046FFF7E4FF02
:1012800005E0204600F097F8204600F095F8002091
:10129000207706F00400042819D105F00400042882
:1012A00015D1C04321680861022020772068806939
:1012B00000F4407018B12046FFF7C6FF05E0204655
:1012C00000F079F8204600F077F80020207706F04B
:1012D0000800082819D105F00800082815D1C043D6
:1012E00021680861042020772068C06900F00300AD
:1012F00018B12046FFF7A8FF05E0204600F05BF894
:10130000204600F059F80020207706F01000102841
:1013100019D105F01000102815D1C04321680861CB
:10132000082020772068C06900F4407018B120467A
:10133000FFF78AFF05E0204600F03DF8204600F068
:101340003BF80020207706F0010048B105F00100CD
:1013500030B16FF0010021680861204600F02DF8DF
:1013600006F08000802809D105F08000802805D192
:10137000C043216808612046FFF7C8FE06F0400020
:10138000402809D105F04000402805D1C04321681C
:101390000861204600F012F806F02000202809D14C
:1013A00005F02000202805D1C043216808612046AF
:1013B000FFF7ADFE70BD70477047704770477047CC
:1013C000704700002DE9F84F044620680568206842
:1013D000C668206847694FF00009CA4605F00F0942
:1013E000B9F1000F0AD105F0200038B106F0200055
:1013F00020B1204600F004FCBDE8F88FB9F1000FE1
:101400007CD007F0010018B906F49070002875D060
:1014100005F0010030B106F4807018B1606C40F046
:101420000100606405F0040030B107F0010018B15C
:10143000606C40F00200606405F0020030B107F01B
:10144000010018B1606C40F00400606405F0080011
:1014500048B106F0200010B907F0010018B1606C27
:1014600040F008006064606C002846D005F0200061
:1014700028B106F0200010B1204600F0C1FB206822
:101480004069C0F3801A606C00F0080010B9BAF12E
:10149000000F2DD0204600F06DFB2068406900F061
:1014A0004000402820D100BF00BF2168143151E81E
:1014B000001F21F040002168143141E80002002A99
:1014C000F3D100BFE06B50B17748E16B0865E06B8A
:1014D000FFF74DF888B1E06B016D88470DE02046BD
:1014E000FFF76EFF09E009E02046FFF769FF04E01F
:1014F0002046FFF765FF002060647DE7206B012830
:1015000078D105F01000002874D006F010000028F3
:10151000FAD000BF0020009020680068009020688A
:101520004068009000BF00BF2068406900F04000A4
:10153000402860D1E06B006840681FFA80F8B8F17D
:10154000000F56D0A08D404553DDA4F82E80E06BEF
:10155000C069B0F5807F43D000BF00BF21680C3167
:1015600051E8001F21F4807021680C3141E800022D
:10157000002AF3D100BF00BF00BF2168143151E839
:10158000001F21F001002168143141E80002002A07
:10159000F3D100BF00BF00BF2168143151E8001F24
:1015A00021F040002168143141E80002002AF3D103
:1015B00000BF202084F842000020206300BF00BF4D
:1015C00021680C3151E8001F21F0100021680C3116
:1015D00041E80002002AF3D100BFE06BFEF771FF83
:1015E00002206063A08DE28D801A81B22046FFF751
:1015F000E6FE01E742E0A08DE18D401A1FFA80F877
:10160000E08DD0B3B8F1000F37D000BF00BF216824
:101610000C3151E8001F21F4907021680C3141E831
:101620000002002AF3D100BF00BF00BF21681431BF
:1016300051E8001F21F001002168143141E8000247
:10164000002AF3D100BF202084F84200002020634C
:1016500000BF00BF21680C3151E8001F21F01000CD
:1016600021680C3141E80002002AF3D100BF0220BA
:10167000606341462046FFF7A2FEBDE605F080000C
:1016800030B106F0800018B1204600F06DFCB3E6E2
:1016900005F0400030B106F0400018B1204600F0DF
:1016A0009FFAA9E600BFA7E6611B000810B5044633
:1016B0000CB9012010BDA06900B100E000BF94F892
:1016C000410028B9002084F84000204600F02AF8A4
:1016D000242084F841002068C06820F4005021686C
:1016E000C860204600F00AFB2068006920F49040A2
:1016F000216808612068406920F02A00216848615B
:101700002068C06840F400502168C8600020606410
:10171000202084F8410084F842000020606300BF6C
:10172000C8E7000010B586B004462E4920688842FC
:1017300055D100BF00BF002000902B48006840F04A
:101740001000294908600846006800F01000009069
:1017500000BF00BF00BF00BF00BF002000902248B4
:101760001438006840F001001F4914390860084629
:10177000006800F00100009000BF00BF00BF00BF84
:1017800000BF002000900846006840F0010008609B
:101790000846006800F00100009000BF00BF00BFD5
:1017A000481501900220029001200390022004902D
:1017B0000720059001A90D48FEF7EEFE4FF480606A
:1017C00001900720059001A90848FEF7E5FE2520B5
:1017D000FFF72DF8032211462520FFF73CF806B04D
:1017E00010BD0000001001404438024000000240DB
:1017F00070B504460D46164694F8420020280BD1D9
:1018000005B10EB9012070BD002020633246294683
:10181000204600F089FBF6E70220F4E710B5044605
:101820002049206888423BD11F48008800F40040CE
:1018300088BB1D48008800F4804070B11B480078C8
:101840000A2803D000201849088024E016480088A0
:1018500040F40040144908801DE0144800780D2829
:1018600006D11148008840F480400F49088012E0FA
:101870000E4800780C490988C1F30D010C4A5054F8
:1018800009480088401C0849088008460088C72885
:1018900001DD00200880012204490648FFF7A8FF67
:1018A00010BD000000100140080000200A000020C8
:1018B0006000002028010020704700BFFEE700BF45
:1018C000FEE770477047000000B587B04FF0C06278
:1018D0004FF480010020FFF751F900BF00BF002046
:1018E00001900F48006840F001000D49086008466B
:1018F000006800F00100019000BF00BF00BF881524
:101900000290022003900020049003200590002004
:10191000069002A90348FEF73FFE07B000BD000095
:101920003038024000000240704710B5FEF72EFF2D
:1019300010BD00002DE9F04192B0044688461546DE
:101940001E460027302106A8FEF718FD142101A825
:10195000FEF714FD00BF002000902548006840F00D
:101960008050234908600846006800F080500090CD
:1019700000BF00BF00BF002000901E48006820F498
:10198000404040F400401B4908600846006800F4ED
:101990004040009000BF00BF012006900004079067
:1019A00002200C9041050D91CDF838800F941095D0
:1019B000119606A8FFF742F907461FB1012012B0A1
:1019C000BDE8F0810F2001900220029000200390DA
:1019D0004FF48050049000200590022101A8FEF7EA
:1019E0008DFF07460FB10120E9E70020E7E700007F
:1019F00040380240007000400348006840F4700026
:101A0000014908607047000088ED00E010B55321DF
:101A100041F2873000F032F810BD30B504460025A1
:101A200004E04FF47A7000F005F86D1CA542F8D37D
:101A300030BD000010B5024600230B4C21680FE0BA
:101A4000094C206888420BD0884201D9431A04E02F
:101A5000054C083424680444631A934200D300E020
:101A6000EEE700BF10BD00002444014010B502485D
:101A7000FFF7EBFB10BD00001800002070B5054615
:101A80000C46084808490860084644600021816007
:101A9000C560016180218161FFF73AFB0248FFF7D1
:101AA0008BFB70BD004401401800002010B5026897
:101AB000244B98420BD0B0F1804F08D0224B984273
:101AC00005D0224B984202D0214B984203D122F0FC
:101AD00070024B681A431B4B984214D0B0F1804FF0
:101AE00011D0194B98420ED0184B98420BD0184B7E
:101AF000984208D0174B984205D0174B984202D015
:101B0000164B984203D122F44072CB681A4322F05C
:101B100080034C6943EA040202608B68C3620B686D
:101B20008362084B984201D10B690363012343612F
:101B3000036903F001031BB1036923F0010303618F
:101B400010BD0000000001400004004000080040FB
:101B5000000C0040004001400044014000480140AA
:101B600070B50546AC6B0020E085E0842046FFF7A9
:101B700027FC70BD00BF00BF02680C3252E8002F86
:101B800022F4907102680C3242E80013002BF3D16A
:101B900000BF00BF00BF0268143252E8002F22F0DD
:101BA00001010268143242E80013002BF3D100BF98
:101BB000016B01290ED100BF00BF02680C3252E850
:101BC000002F22F0100102680C3242E80013002BB3
:101BD000F3D100BF202180F842100021016370473B
:101BE00010B504462068C06820F040002168C86035
:101BF000202084F841002046FFF75EFE002010BD43
:101C0000F8B5044694F84200222875D1A068B0F5D2
:101C1000805F0CD1206950B90025A66A2068406811
:101C2000C0F308003080A06A801CA06215E0A56A9D
:101C30000026A068B0F5805F03D0A06828B92069AD
:101C400018B920684068287004E02068406800F0F7
:101C50007F002870A06A401CA062E08D401E80B208
:101C6000E085002846D12068C06820F02000216867
:101C7000C8602068C06820F480702168C86020684F
:101C8000406920F0010021684861202084F842006A
:101C900000206063206B012826D10020206300BF54
:101CA00000BF21680C3151E8001F21F010002168AD
:101CB0000C3141E80002002AF3D100BF206800681F
:101CC00000F0100010280AD100BF0020009020680A
:101CD0000068009020684068009000BF00BFA18DA0
:101CE0002046FFF76CFB02E02046FFF797FD00203F
:101CF000F8BD01E00020FBE70220F9E72DE9F84FED
:101D000004462068006920F44050E16808432168D7
:101D100008612169A068084361690843E1690843D3
:101D200000902068C06849F20C618843009908431C
:101D30002168C8602068406920F44070A1690843A8
:101D40002168486176492068884203D07549206837
:101D5000884203D1FEF7AAFE814602E0FEF796FE16
:101D60008146E069B0F5004F6CD102206168A0FBAC
:101D7000015003461920A9FB007001462A46384647
:101D8000FEF779FA6421B0FBF1F04FEA001A022065
:101D90006168A0FB01510B461920A9FB00712A467E
:101DA0003846FEF768FA834602206168A0FB0150BE
:101DB00003461920A9FB00712A463846FEF75BFA54
:101DC0006421B0FBF1F000EBC00101EB0010ABEBC4
:101DD0008000322101EBC0006421B0FBF1F000F083
:101DE000F8000AEB400A02206168A0FB015003469C
:101DF0001920A9FB007001462A463846FEF73BFA37
:101E0000834602206168A0FB015003461920A9FB0C
:101E100000712A463846FEF72EFA6421B0FBF1F035
:101E200000EBC00101EB0010ABEB8000322101EBB5
:101E3000C0006421B0FBF1F000F0070050442168BD
:101E400088606AE004206168A0FB01500346192005
:101E5000A9FB007001462A463846FEF70CFA824676
:101E600004206168A0FB015003461920A9FB007003
:101E700001462A463846FEF7FEF96421B0FBF1F030
:101E800000EBC00101EB0010AAEB8000322101EB56
:101E900000106421B0FBF1F000F0F00A042061684A
:101EA000A0FB017003461920A9FB00513A462846C1
:101EB000FEF7E1F96421B0FBF1F00AEB001A04200F
:101EC0006168A0FB01510B461920A9FB00712A464D
:101ED0003846FEF7D0F9834604206168A0FB015024
:101EE00003461920A9FB007001462A463846FEF732
:101EF000C2F96421B0FBF1F000EBC00101EB00106E
:101F0000ABEB8000322101EB00106421B0FBF1F05B
:101F100000F00F00504421688860BDE8F88F000091
:101F2000001001400014014010B5034699629A85E3
:101F3000DA8500205864222083F84200186928B10D
:101F40001868C06840F480701C68E06018684069D8
:101F500040F001001C6860611868C06840F0200013
:101F60001C68E060002010BD014691F84100212866
:101F700028D18868B0F5805F0BD1086948B90A6A32
:101F80001088C0F308000B685860086A801C08625B
:101F900005E00B6A581C086218780B685860C88CFA
:101FA000401E80B2C88458B90868C06820F080001C
:101FB0000B68D8600868C06840F040000B68D860C3
:101FC000002070470220FCE710B50248FFF7FAF93D
:101FD00010BD00002801002000BFFEE70248006895
:101FE000C0F30220704700000CED00E010B500289F
:101FF00004DB0A07130E054A135406E00A07140E01
:10200000034A00F00F031B1FD45410BD00E400E08E
:1020100018ED00E000BF704700BF054A126802F0EB
:102020004002002AF9D0C2B2014B5A60704700004A
:102030000010014000B587B000BF00BF0020019034
:102040001148006840F004000F4908600846006825
:1020500000F00400019000BF00BF00BF4FF400502B
:1020600002900120039004900220059002A90748E5
:10207000FEF792FA00BF012251030448FEF77AFBF3
:1020800000BF07B000BD0000303802400008024029
:10209000FEF788FB042302221921A820FFF74AFC3F
:1020A000FFF7B4FCFFF7C6FF00BF4FF4005117481D
:1020B000FEF756FB00BF3220FFF7AFFC00BF4FF426
:1020C00000511248FEF74CFB00BF4FF4E13000F026
:1020D00021F8FFF7F9FB18E000BF4FF400510B485F
:1020E000FEF73EFB00BF4FF4FA70FFF796FC00BF0F
:1020F0004FF400510548FEF733FB00BF4FF4FA7070
:10210000FFF78BFC02A0FEF72DF9E5E7000802407F
:102110003132330010B5044609480A4908600846C0
:10212000446000218160C160016181610C214161D5
:10213000FFF7BCFA012204490248FFF759FB10BD22
:1021400000100140280100200A0000204FF04070DC
:10215000E1EE100A704700000000000000000102DC
:102160000304060708090000000001020304000040
:10217000902100080000002018000000D001000895
:10218000A821000818000020B8070000EC01000892
:102190000024F40000000000000000000000000027
:0821A000100000000100000026
:040000050800019559
:00000001FF
