:020000040800F2
:10000000D04B00207502000851390008E32D00088C
:100010004D39000861040008D548000800000000C0
:10002000000000000000000000000000194100086E
:10003000B9050008000000009D3E000829420008A4
:100040008F0200088F0200088F0200088F0200084C
:100050008F0200088F0200088F0200088F0200083C
:100060008F0200088F0200088F0200088F0200082C
:100070008F0200088F0200088F0200088F0200081C
:100080008F0200088F0200088F02000800000000A5
:100090000000000000000000000000008F020008C7
:1000A0008F020008694300088F0200088F020008D1
:1000B0008F0200088F0200088F0200088F020008DC
:1000C0008F0200088F0200088F0200088F020008CC
:1000D0008F020008C54800088F02000800000000D9
:1000E0008F0200088F0200088F0200080000000045
:1000F0000000000000000000000000008F02000867
:10010000000000008F0200088F0200088F02000824
:1001100000000000000000000000000000000000DF
:100120008F0200088F0200088F0200086504000893
:100130008F02000800000000000000000000000026
:100140000000000000000000000000008F02000816
:100150008F0200088F0200088F0200088F0200083B
:100160008F0200088F02000800000000000000005D
:10017000000000000000000000000000000000007F
:10018000000000008F0200080000000000000000D6
:100190008F02000800F002F800F05CF80AA090E876
:1001A000000C82448344AAF10107DA4501D100F032
:1001B00051F8AFF2090EBAE80F0013F0010F18BFA3
:1001C000FB1A43F0010318470C7900002C7900005A
:1001D0000A444FF0000C10F8013B13F0070408BF6D
:1001E00010F8014B1D1108BF10F8015B641E05D00B
:1001F00010F8016B641E01F8016BF9D113F0080FC0
:100200001EBF10F8014BAD1C0C1B09D16D1E58BF51
:1002100001F801CBFAD505E014F8016B01F8016B88
:100220006D1EF9D59142D6D37047000000230024FB
:1002300000250026103A28BF78C1FBD8520728BFF6
:1002400030C148BF0B6070471FB504F0ADFC1FBD47
:1002500010B510BD00F0D1F81146FFF7F5FF04F01E
:1002600087FB00F0EFF803B4FFF7F2FF03BC04F0E4
:100270004FFB00000948804709480047FEE7FEE7BA
:10028000FEE7FEE7FEE7FEE7FEE7FEE7FEE7FEE746
:1002900004480549054A064B70470000F54200082E
:1002A00095010008D0450020D04B0020D047002009
:1002B000D0470020704753EA020C00F069802DE916
:1002C000F04B4FF00006002B1FBFB3FA83F503FA83
:1002D00005F424FA05F65E4012BF1643B2FA82F521
:1002E00002FA05F4C5F120051EBF22FA05FC44EA16
:1002F0000C04203556EA044C4FEA144418BF641C21
:100300004FF000084FF00009904271EB030C39D315
:10031000002919BFB1FA81F701FA07F6B0FA80F7A0
:1003200000FA07F6C7F120071EBF20FA07FC46EACD
:100330000C062037B6FBF4FCA7EB0507103F07F0CF
:100340001F0BCBF120060CFA0BFB2CFA06F644BF70
:10035000B3460026202FA4BF5E464FF0000B5BEA99
:10036000060C08BF4FF0010B19EB0B09ABFB027C2D
:1003700048EB0608C01B06FB02CC0BFB03CC71EB61
:100380000C01C1E70B46024641464846BDE8F08BEA
:1003900013B54FF000004FF00001AFF30080BDE84F
:1003A0001C4070474FF0000200B513469446964635
:1003B000203922BFA0E80C50A0E80C50B1F1200178
:1003C000BFF4F7AF090728BFA0E80C5048BF0CC026
:1003D0005DF804EB890028BF40F8042B08BF704784
:1003E00048BF20F8022B11F0804F18BF00F8012BF6
:1003F00070477047704770477047754600F02CF89B
:10040000AE4605006946534620F00700854618B001
:1004100020B5FFF73DFFBDE820404FF000064FF04C
:1004200000074FF000084FF0000B21F00701AC4629
:10043000ACE8C009ACE8C009ACE8C009ACE8C00948
:100440008D46704710B50446AFF300802046BDE8E6
:100450001040FFF708BF0000004870476C450020BF
:1004600000BFFEE710B5024800F036FC10BD0000EA
:10047000D01600200146087810381823B0FBF3F29C
:100480000848805CC865032A05D908686FF309002D
:10049000001D886503E008686FF309008865886DB2
:1004A00070470000387A0008014600208A6A8B698C
:1004B000CBB932B1012A0DD0022A03D0032A10D1C0
:1004C0000EE000BFCB6A03F08073B3F1807F00D1F0
:1004D000012007E0CB6AB3F1C07F00D1012001E029
:1004E00000E000BF34E08B69B3F5005F1AD132B190
:1004F000012A07D0022A03D0032A11D10AE000BF43
:1005000001200EE0CB6A03F08073B3F1807F00D14D
:10051000012006E0CB6AB3F1C07F00D1012000E0EA
:1005200000BF15E032B1012A05D0022A04D0032A07
:100530000CD103E000BF00BF012008E0CB6A03F04C
:100540008073B3F1807F00D1012000E000BF00BFC5
:100550007047000008B500BF002000900A480068FE
:1005600040F48000084908600846006800F48000F4
:10057000009000BF00BF002205213B2001F0E9F8F8
:100580003B2001F0D2F808BD3038024030B5046895
:10059000246824F4802405682C60046863608468FF
:1005A000402C04D10468A2600468E16003E00468A0
:1005B000A1600468E26030BD704700003EB50020D5
:1005C00002F012FE25480068057800211022234819
:1005D000006840680B46CDE9012100904FF6FF729C
:1005E000084603F09BFD002434E0B4B900210C223E
:1005F000C4EBC400194B1B6803EB80008068CDE995
:1006000001210090601C00EB800081004CF2186317
:100610001F22002003F082FD15E000210C22C4EB14
:10062000C4000E4B1B6803EB80008068CDE90121FC
:100630000090601C00EB8000810000234FF6FF72E9
:10064000184603F06BFD22462146204600F008F8CC
:10065000601CC4B2AC42C8DB3EBD000020020020DA
:10066000FEB506460C461546002E70D1C5EBC500FA
:100670008349096801EB8000007B662868D1C5EBDF
:10068000C5007F49096801EB8000407B062860D2E5
:10069000DFE800F05F031527394B0C204CF218619E
:1006A0001F22CDE900210290601C00EB8000810038
:1006B000032374480278402003F044F85AE00C20E9
:1006C0004CF218611F22CDE900210290601C00EB62
:1006D0008000810003236C480278402003F032F848
:1006E00048E00C204CF218611F22CDE90021029055
:1006F000601C00EB800081000323644802784020E6
:1007000003F020F836E00C204CF218611F22CDE9EE
:1007100000210290601C00EB8000810003235C48F4
:100720000278402003F00EF824E00C204CF218610F
:100730001F22CDE900210290601C00EB80008100A7
:10074000032354480278402002F0FCFF12E012E03C
:1007500094E000200C2150A2CDE900210290601C01
:1007600000EB800081004CF218631F22402003F050
:10077000D5FC00BF82E0C5EBC5004149096801EB2B
:100780008000007B662879D1C5EBC5003C4909682B
:1007900001EB8000407B06285ED2DFE800F05D03BD
:1007A0001527394B0C2000214FF6FF72CDE90021AF
:1007B0000290601C00EB8000810003233148027826
:1007C000402002F0BFFF58E00C2000214FF6FF72DE
:1007D000CDE900210290601C00EB80008100032322
:1007E00029480278402002F0ADFF46E00C200021AD
:1007F0004FF6FF72CDE900210290601C00EB8000F3
:100800008100032321480278402002F09BFF34E05E
:100810000C2000214FF6FF72CDE900210290601CF0
:1008200000EB80008100032319480278402002F089
:1008300089FF22E00C2000214FF6FF72CDE9002154
:100840000290601C00EB80008100032311480278B5
:10085000402002F077FF10E000200C210EA2CDE92D
:1008600000210290601C00EB8000810000234FF605
:10087000FF72402003F052FC00BF00BFFEBD00002D
:100880002002002020000020210000202200002063
:1008900023000020240000206572726F72000000A7
:1008A00010B54FF47A7000F0F7FB10BD10B54FF49F
:1008B000FA6000F0F1FB10BD10B540F6B83000F062
:1008C000EBFB10BD10B54FF47A6000F0E5FB10BDF6
:1008D00010B541F2883000F0DFFB10BD2DE9FC5F60
:1008E0000546884691469A46DDF830B000953E2090
:1008F000019000245FE004EB0410374911F8100068
:100900009BF80010884253D104EB0410324901EBEC
:10091000400040789BF80110884249D108F10F004F
:1009200083B205F10F0082B24146284602F04CFE28
:1009300000263BE0002734E00D9890B904EB04104A
:10094000254901EB4000801C805D80213941084031
:1009500018B1484602F0D2FF21E0504602F0CEFF27
:100960001DE01E48A0F8009004EB04101A4901EBAA
:100970004000801C805D80213941084018B141460B
:10098000284602F081FC681C85B20098281A1028BD
:1009900005D1009D08F101001FFA80F803E0781CE2
:1009A000C7B2082FC8DB00BF701CC6B2202EC1DB47
:1009B00000BF601C84B2019884429CDB08484088D8
:1009C000401E83B206480088401E82B200210846BD
:1009D00002F0FAFDBDE8FC9F2E560008180000202A
:1009E000301700202DE9FC5F0546884691469A465F
:1009F000DDF830B0009507200190002467E004EB9B
:100A0000840000EB44103A4911F810009BF80010E4
:100A1000884259D104EB840000EB4410344901EBC7
:100A2000400040789BF8011088424DD108F1170032
:100A300083B205F1170082B24146284602F0C4FD98
:100A400000263FE0002738E00D98A0B904EB8400B1
:100A500000EB4410264901EB4000801C805D8021A2
:100A60003941084018B1484602F048FF23E050469B
:100A700002F044FF1FE01F48A0F8009004EB840040
:100A800000EB44101A4901EB4000801C805D80217E
:100A90003941084018B14146284602F0F5FB681C70
:100AA00085B20098281A182805D1009D08F1010088
:100AB0001FFA80F803E0781CC7B2082FC4DB00BF20
:100AC000701CC6B2482EBDDB00BF601C84B201980A
:100AD000844294DB08484088401E83B20648008860
:100AE000401E82B20021084602F06EFDBDE8FC9F68
:100AF0006A5E000818000020301700202DE9FC5F16
:100B00000546884691469A46DDF830B000950420A7
:100B1000019000245FE004EB8410374911F81000C5
:100B20009BF80010884253D104EB8410324901EB4A
:100B3000400040789BF80110884249D108F11F001D
:100B400083B205F11F0082B24146284602F03CFD07
:100B500000263BE0002734E00D9890B904EB8410A8
:100B6000254901EB4000801C805D8021394108400F
:100B700018B1484602F0C2FE21E0504602F0BEFE27
:100B80001DE01E48A0F8009004EB84101A4901EB08
:100B90004000801C805D80213941084018B14146E9
:100BA000284602F071FB681C85B20098281A20289C
:100BB00005D1009D08F101001FFA80F803E0781CC0
:100BC000C7B2082FC8DB00BF701CC6B2802EC1DBC5
:100BD00000BF601C84B2019884429CDB08484088B6
:100BE000401E83B206480088401E82B2002108469B
:100BF00002F0EAFCBDE8FC9F7060000818000020CD
:100C00003017002070B50446A56D00F043FB064682
:100C100094F83500022808D08020606500BF0020CD
:100C200084F8340000BF012070BD2068006820F007
:100C30001600216808602068406920F08000216863
:100C40004861206C08B9A06C28B12068006820F0C9
:100C50000800216808602068006820F00100216811
:100C6000086010E000F016FB801B05280BD920203F
:100C70006065032084F8350000BF002084F834004C
:100C800000BF0320D0E72068006800F001000028C2
:100C9000E8D194F85C103F208840A860012084F8D7
:100CA000350000BF002084F8340000BF00BFBBE760
:100CB000014691F83500022803D0802048650120C4
:100CC0007047052081F835000868006820F00100B1
:100CD0000A6810600020F3E7F8B504460020009091
:100CE0008C4800684FF41651B0FBF1F7A56D2E68E3
:100CF00094F85C1008208840304098B12068006863
:100D000000F0040070B12068006820F00400216841
:100D1000086094F85C1008208840A860606D40F07E
:100D20000100606594F85C1001208840304068B193
:100D30002068406900F0800040B194F85C10012008
:100D40008840A860606D40F00200606594F85C1017
:100D500004208840304068B12068006800F002003C
:100D600040B194F85C1004208840A860606D40F0A9
:100D70000400606594F85C1010208840304078B31F
:100D80002068006800F0080050B394F85C10102050
:100D90008840A8602068006800F4802080B1206846
:100DA000006800F4002028B9206CC8B12046216CEE
:100DB000884715E0A06C98B12046A16C88470FE0E9
:100DC0002068006800F4807028B92068006820F06E
:100DD000080021680860206C10B12046216C88470B
:100DE00094F85C10202088403040002865D02068AE
:100DF000006800F0100000285FD094F85C102020FC
:100E00008840A86094F83500052828D1206800683B
:100E100020F01600216808602068406920F08000FA
:100E200021684861206C08B9A06C28B1206800686E
:100E300020F008002168086094F85C103F2088408A
:100E4000A860012084F8350000BF002084F8340039
:100E500000BF206D10B12046216D8847F8BD206885
:100E6000006800F4802080B12068006800F4002051
:100E700028B9606C10B12046616C88471DE0E06BBA
:100E8000D8B12046E16B884717E02068006800F47D
:100E9000807068B92068006820F010002168086040
:100EA000012084F8350000BF002084F8340000BF22
:100EB000E06B10B12046E16B8847606D38B3606D20
:100EC00000F00100F0B1052084F8350020680068CA
:100ED00020F001002168086000BF0098401C0090CD
:100EE000B84200D905E02068006800F00100002841
:100EF000F3D100BF012084F8350000BF002084F842
:100F0000340000BFE06C10B12046E16C884700BFA0
:100F1000A4E70000000000202DE9F0410446002570
:100F200000F0B8F9074614B90120BDE8F081606A05
:100F300000B100BF022084F8350000BF002084F813
:100F4000340000BF2068006820F0010021680860BC
:100F50000AE000F09FF9C01B052805D92020606534
:100F6000032084F83500E0E72068006800F0010005
:100F70000028EED12068056821480540D4E9010128
:100F80000843E16808432169084361690843A1698E
:100F90000843E1690843216A08430543606A04285D
:100FA00003D1D4E90B01084305432068056020689C
:100FB000456925F00705606A0543606A04280DD17C
:100FC000A06A0543E06A48B12046FFF76DFA28B1F0
:100FD00040206065012084F83500A6E7206845615F
:100FE0002046FFF747FA064694F85C103F208840F9
:100FF000B06000206065012084F83500002094E78F
:101000003F8010F02DE9F04704460D4616461F4676
:101010004FF00008D4F8589000BF94F8340001282D
:1010200002D10220BDE8F087012084F8340000BF1F
:1010300094F83500012825D1022084F835000020DD
:1010400060653B46324629462046FFF79FFA94F8F2
:101050005C103F208840C9F808002068006840F014
:10106000160021680860206C28B12068006840F0F4
:101070000800216808602068006840F001002168CD
:10108000086006E000BF002084F8340000BF4FF085
:1010900002084046C6E7000070B5044600F0FAF8C2
:1010A00006462546681C10B104480078054400BF78
:1010B00000F0F0F8801BA842FAD370BD741600202F
:1010C000F8B502460B460025002400200021C7E0A9
:1010D000012606FA01F51E6806EA0504AC4274D141
:1010E0001E7906F00306012E04D01E7906F00306D1
:1010F000022E13D190684F000326BE40B0434F002C
:10110000DE68BE4030439060506801268E40B04398
:101110001E79C6F300168E40304350601E7906F0EB
:101120000306032E09D0D0684F000326BE40B0430B
:101130004F009E68BE403043D0601E7906F0030623
:10114000022E13D1CF0802F1200656F827004E07D1
:10115000F70E0F26BE40B0434F07FF0E1E69BE407C
:101160003043CF0802F1200646F8270010684F00F0
:101170000326BE40B0431E7906F003064F00BE4072
:10118000304310605E6806F44036002E67D000BF22
:1011900000260096344E366846F48046324F3E6054
:1011A0003E46366806F48046009600BF00BF2F4ECC
:1011B0008F0856F827008E07370F0F26BE40B04322
:1011C0002B4EB24202D1002615E048E0294EB24231
:1011D00001D101260FE0284EB24201D102260AE0D9
:1011E000264EB24201D1032605E0254EB24201D17E
:1011F000042600E007268F073F0FBE4030431B4EFA
:101200008F0846F827001F4E3068A0435E6806F43A
:10121000801606B120431B4E3060361D3068A04357
:101220005E6806F4001606B12043164E361D306087
:10123000144E361F3068A0435E6806F4003606B1CF
:101240002043104E361F3060361F3068A0435E6862
:1012500006F4803606B120430A4E083E3060491C31
:101260001029FFF435AFF8BD44380240083801407A
:10127000000002400004024000080240000C02404E
:1012800000100240083C01400AB1816101E00B04FA
:101290008361704701480068704700006C160020A9
:1012A00070B504460CB9012070BD94F83D0028B912
:1012B000002084F83C00204600F08CF9242084F8BB
:1012C0003D002068006820F0010021680860206867
:1012D000006840F40040216808602068006820F43D
:1012E00000402168086000F04FFB05465C496068DB
:1012F000884206D85B48854201D2012007E00020E1
:1013000005E05948854201D2012000E00020012873
:1013100000D1C9E75548B5FBF0F62068406820F0D9
:101320003F003043216848604D496068884201D8D9
:10133000701C07E04FF4967070434FF47A71B0FB65
:10134000F1F0401C2168096A21F03F01084321683F
:10135000086243496068884214D8681E6168490081
:10136000B0FBF1F0401CC0F30B00042801D20420B4
:101370003DE0681E61684900B0FBF1F0401CC0F31D
:101380000B0034E0A06838B9681E616801EB4101C8
:10139000B0FBF1F0401C0AE0681E616801EBC1027D
:1013A00002EB0111B0FBF1F0401C40F48040C0F3AF
:1013B0000B0008B901201AE0A06848B9681E6168EE
:1013C00001EB4101B0FBF1F0401CC0F30B000CE05D
:1013D000681E616801EBC10202EB0111B0FBF1F084
:1013E000401CC0F30B0040F4804040F400402168F2
:1013F000C9694CF6FF72914308432168C861D4E97A
:10140000070108432168096821F0C00108432168E9
:101410000860D4E9031008432168896848F2FF3264
:101420009143084321688860D4E905010843216895
:10143000C96821F0FF0108432168C860206800687E
:1014400040F001002168086000202064202084F81A
:101450003D000020206384F83E0000BF24E7000028
:10146000A086010080841E0000093D0040420F005C
:101470002DE9FC5F04460F4690469946DDE90CAB2A
:101480000E9EFFF707FF054694F83D0020287DD10A
:10149000192301224D492046009501F066FD10B147
:1014A0000220BDE8FC9F00BF94F83C00012801D158
:1014B0000220F6E7012084F83C0000BF20680068A5
:1014C00000F0010028B92068006840F001002168A0
:1014D00008602068006820F400602168086021200E
:1014E00084F83D00402084F83E0000202064C4F8C9
:1014F00024A0A4F82AB0608D20853548E0624B46D0
:10150000424639462046CDE9006501F08BFC08B122
:101510000120C6E731E02A463146204601F001FEAF
:1015200050B1206C042805D12068006840F4007098
:10153000216808600120B4E7606A007821680861CA
:10154000606A401C6062208D401E2085608D401EB8
:10155000608520684069C0F3800070B1208D60B163
:10156000606A007821680861606A401C6062208DB2
:10157000401E2085608D401E6085208D0028CAD1C8
:101580002A463146204601F0BDFC00E01CE050B187
:10159000206C042805D12068006840F400702168A0
:1015A000086001207DE72068006840F40070216831
:1015B0000860202084F83D00002084F83E0000BF31
:1015C00084F83C0000BF6CE702206AE702001000CC
:1015D0000000FFFF10B586B0044600BF00BF00202A
:1015E00000902648006840F400102449086008462E
:1015F000006800F40010009000BF00BF00BF204949
:101600002068884238D100BF00BF002000901B48EE
:101610001038006840F00200184910390860084688
:10162000006800F00200009000BF00BF00BF00BFD4
:1016300000BF002000900846006840F002000860EB
:101640000846006800F00200009000BF00BF00BF25
:10165000402001900220029001200390032004907A
:101660000420059001A90748FFF72AFD802001907A
:1016700001A90448FFF724FD06B010BD4038024020
:101680000054004000040240034800680349097800
:1016900008440149086070476C1600207416002049
:1016A00010B50D48006840F400700B49086008460A
:1016B000006840F4806008600846006840F480706C
:1016C0000860032000F084F80F2000F007F800F015
:1016D0002BF8002010BD0000003C024070B504460D
:1016E0000E4800784FF47A71B1FBF0F00C490968AC
:1016F000B1FBF0F5284600F083FF08B1012070BD72
:10170000102C07D200222146501E00F022F8054876
:10171000046001E00120F2E70020F0E774160020E9
:10172000000000207016002070470146084600287F
:101730000DDB00BF00BF00F01F0301229A404309E8
:101740009B0003F1E023C3F8002100BF00BF00BFEE
:1017500070472DE9F05F80460D461646002703F0DE
:10176000BBF8074639462A46334601F00700C0F168
:10177000070ABAF1040F02D94FF0040A01E0C0F1E0
:10178000070AD14600F1040ABAF1070F02D24FF05E
:10179000000A01E0A0F1030AD4464FF0010A0AFA58
:1017A00009FAAAF1010A0AEA020A0AFA0CFA4FF047
:1017B000010B0BFA0CFBABF1010B0BEA030B4AEA32
:1017C0000B042146404603F08FF8BDE8F09F00006F
:1017D00000BF00F00702064B19684FF6FF031940DF
:1017E000044B0B4343EA0221014B196000BF7047D1
:1017F0000CED00E00000FA0570B504460D460CB98A
:10180000012070BD5848006800F00700A84209D2C6
:1018100055490D700846006800F00700A84201D045
:101820000120EEE7207800F0020002281DD1207888
:1018300000F00400042805D14C48006840F4E05052
:101840004A490860207800F00800082805D1474878
:10185000006840F46040454908604448006820F052
:10186000F000A168084341490860207800F00100B9
:10187000A8B36068012807D13C4808380068C0F365
:101880004040B8B90120BCE76068022802D0606817
:10189000032807D1354808380068C0F3406048B9CC
:1018A0000120AEE7314808380068C0F3400008B9AD
:1018B0000120A6E72D48006820F003006168084376
:1018C0002A490860FFF7E6FC064609E0FFF7E2FC5C
:1018D000801B41F28831884202D9032091E707E05A
:1018E0002248006800F00C006168B0EB810FEDD178
:1018F0001D48006800F00700A84209D91A490D7078
:101900000846006800F00700A84201D0012078E7EF
:10191000207800F00400042807D11448006820F45F
:10192000E050E168084311490860207800F00800A1
:10193000082808D10D48006820F46040216940EA79
:10194000C1000A49086000F03FF808490968C1F37E
:101950000311074A515CC840064908600648006800
:10196000FFF7BCFE00204CE7003C02400838024074
:10197000B24B0008000000207016002001480068EB
:10198000704700000000002000B5FFF7F7FF044992
:101990000968C1F38221034A515CC84000BD0000C0
:1019A00008380240C24B000800B5FFF7E7FF0449C2
:1019B0000968C1F34231034A515CC84000BD0000D0
:1019C00008380240C24B00082DE9F04700240025EA
:1019D0000026A1462548006800F00C0020B104282C
:1019E00005D008283AD105E0DFF8849039E0DFF827
:1019F000849036E01D48001F006800F03F041B483B
:101A0000001F006800F4800078B11A481749091FC8
:101A10000968C1F38811A0FB01700146224600232A
:101A20003846FEF748FC05460EE011480F49091FED
:101A30000968C1F38811A0FB01700146224600230A
:101A40003846FEF738FC05460848001F0068C0F31A
:101A50000140401C4600B5FBF6F902E0DFF81090AB
:101A600000BF00BF4846BDE8F087000008380240CC
:101A70000024F40040787D0170B586B006460C461F
:101A8000154646BB00BF002000902848006840F083
:101A90000100264908600846006800F00100009037
:101AA00000BF00BF8815019002200290032004901F
:101AB00000200390059001A91D48FFF701FB1B487A
:101AC0002838006820F0EC6044EA05010843174913
:101AD0002839086027E000BF002000901348006804
:101AE00040F00400114908600846006800F0040056
:101AF000009000BF00BF4815019002200290032013
:101B0000049000200390059001A90A48FFF7D8FA35
:101B100006482838006820F0784044EAC5010843A8
:101B200002492839086006B070BD00003038024014
:101B30000000024000080240F8B504460CB901203C
:101B4000F8BD207800F00100002874D0F948006842
:101B500000F00C0004280DD0F648006800F00C00DE
:101B6000082813D1F348001F006800F48000B0F586
:101B7000800F0BD1EF4808380068C0F340400028C0
:101B800059D06068002856D10120D9E700BF6068AD
:101B9000B0F5803F08D1E7480838006840F480304D
:101BA000E449083908601EE06068B0F5A02F0DD147
:101BB000E0480838006840F48020DE4908390860B1
:101BC0000846006840F4803008600CE0D9480838C6
:101BD000006820F48030D74908390860084600685A
:101BE00020F48020086000BF606890B1FFF752FBCE
:101BF000054606E0FFF74EFB401B642801D9032091
:101C00009EE7CC4808380068C0F340400028F1D077
:101C100011E0FFF73FFB054606E0FFF73BFB401BEB
:101C2000642801D903208BE7C24808380068C0F354
:101C300040400028F1D1207800F0020002285FD156
:101C4000BC48006800F00C0058B1BA48006800F0C9
:101C50000C0008281CD1B748001F006800F4800061
:101C6000B0B9B44808380068C0F3400020B1E0685B
:101C7000012801D0012063E7AE480838006820F051
:101C8000F800216940EAC100AA490839086037E034
:101C9000E06800B30120A8490860FFF7FBFA054699
:101CA00006E0FFF7F7FA401B022801D9032047E7B7
:101CB000A04808380068C0F340000028F1D09D48D3
:101CC0000838006820F0F800216940EAC10099490D
:101CD0000839086014E0002097490860FFF7DAFA35
:101CE000054606E0FFF7D6FA401B022801D903207B
:101CF00026E7904808380068C0F340000028F1D17A
:101D0000207800F0080008282CD16069A8B10120D3
:101D10008A490860FFF7BEFA054606E0FFF7BAFAFF
:101D2000401B022801D903200AE782486C30006872
:101D3000C0F340000028F1D014E000207F49086083
:101D4000FFF7A8FA054606E0FFF7A4FA401B0228B1
:101D500001D90320F4E677486C300068C0F34000F6
:101D60000028F1D1207800F00400042870D1002769
:101D700070483830006800F0805090B900BF0020F3
:101D800000906C483830006840F080506949383124
:101D900008600846006800F08050009000BF00BF57
:101DA00001276748006800F48070B0B96448006893
:101DB00040F4807062490860FFF76CFA054606E05F
:101DC000FFF768FA401B022801D90320B8E65C48F7
:101DD000006800F480700028F2D000BFA0680128DD
:101DE00008D154486830006840F00100514968311A
:101DF00008601DE0A06805280DD14E4868300068D5
:101E000040F004004B49683108600846006840F023
:101E1000010008600CE047486830006820F00100CD
:101E20004449683108600846006820F004000860F2
:101E300000BFA068A8B1FFF72DFA054609E0FFF73B
:101E400029FA401B41F28831884202D9032077E603
:101E500026E0384868300068C0F340000028EED023
:101E600013E0FFF717FA054608E0FFF713FA401BE7
:101E700041F28831884201D9032061E62D4868305B
:101E80000068C0F340000028EFD1012F07D1294896
:101E90003830006820F0805026493831086000BF93
:101EA000A069002845D02348006800F00C000828ED
:101EB0005DD0A069022845D100201F490866FFF7C0
:101EC000E9F9054606E0FFF7E5F9401B022801D9CC
:101ED000032035E6174808380068C0F34060002842
:101EE000F1D1D4E907010843616A40EA8111012276
:101EF000A06AC2EB500041EA00412C20005D41EA9B
:101F000000600C49091F086001200B490866FFF7B3
:101F1000C1F9054606E0FFF7BDF9401B022801D9CB
:101F200003200DE6034808380068C0F3406000282D
:101F3000F1D049E00838024000004742800E474295
:101F400000700040002021490866FFF7A3F905460C
:101F500006E0FFF79FF9401B022801D90320EFE5B7
:101F60001B480068C0F340600028F2D12CE0A06953
:101F7000012800D1E4E51648001D0668A069012883
:101F800020D006F48001E06981421BD106F03F01B8
:101F9000206A814216D147F6C0703040616AB0EBCA
:101FA000811F0FD106F440310122A06AC2EB50001C
:101FB000B1EB004F06D106F070612C20005DB1EB53
:101FC000006F01D00120BBE50020B9E500004742C9
:101FD00000380240704710B504460CB9012010BD0E
:101FE000606A38B96068B0F5827F00D105E00021F1
:101FF000E16102E0002121616161A06AB0F5005F4A
:1020000000D100BF94F8510028B9002084F8500096
:10201000204600F04FF8022084F851002068006844
:1020200020F0400021680860A08800F482702189B7
:1020300001F404410843A18901F400610843217CB3
:1020400001F002010843217D01F001010843218BC9
:1020500001F400710843217F01F038010843202179
:10206000095D01F080010843218D01F4005108430E
:10207000216808600421A06901EA104094F8241046
:1020800001F01001084321684860A06AB0F5005FC4
:1020900003D1A08D80B2216808612068C06920F456
:1020A00000602168C86100206065012084F851004B
:1020B000002094E710B586B0044600BF00BF0020A2
:1020C00000903C48006840F480503A490860084657
:1020D000006800F48050009000BF00BF00BF364988
:1020E0002068884264D100BF00BF002000903148C2
:1020F0001438006840F001002E4914390860084681
:10210000006800F00100009000BF00BF00BF00BFEA
:1021100000BF002000900846006840F00100086001
:102120000846006800F00100009000BF00BF00BF3B
:1021300000BF00BF002000900846006840F001008A
:1021400008600846006800F00100009000BF00BF72
:1021500000BF202001900220029001200390032064
:1021600004900520059001A91448FEF7A9FF8020DE
:10217000019001A91148FEF7A3FF11481149086019
:102180004FF0C060486040210E4881600021C1606E
:102190004FF480610161002141618161C16101628F
:1021A0004162FEF7B9FE00BF0648A064846300BF29
:1021B00006B010BD4438024000300140000002402B
:1021C00058640240D01600202DE9F04F85B0044637
:1021D000884691461D460E9E0020039001200290E5
:1021E0000020019000BF94F85000012803D1022084
:1021F00005B0BDE8F08F012084F8500000BFFFF764
:1022000049F8074694F851B060680490AA46BBF1BB
:10221000010F0BD00498B0F5827F04D1A06810B9EB
:10222000BBF1040F02D00220019052E1B8F1000F7F
:1022300003D0B9F1000F00D015B90120019048E199
:1022400094F85100042802D0052084F851000020A1
:102250006065C4F83890E587A587C4F83080E586C6
:10226000A58620646064A06AB0F5005F0DD100BF50
:102270002068006820F40050216808602068006829
:1022800040F400502168086000BF2068006800F03A
:102290004000402805D02068006840F040002168D8
:1022A0000860E068B0F5006F65D1606810B1BAF100
:1022B000010F15D1206B00882168C860206B801C3D
:1022C0002063E08E401EE086E08E48B9A06AB0F53B
:1022D000005F05D12068006840F4805021680860E4
:1022E00042E02068806800F0020002281CD1E08EE5
:1022F000D0B10298012817D1206B00882168C860EE
:10230000206B801C2063E08E401EE086002002903F
:10231000E08E48B9A06AB0F5005F05D1206800687A
:1023200040F48050216808602068806800F0010057
:1023300068B1E08F58B12068C068A16B0880A06BBD
:10234000801CA063E08F401EE08701200290FEF712
:10235000A1FFC01BB04207D3701C28B1032001901D
:10236000012084F85100B4E0E08E0028B9D1E08F5C
:102370000028B6D165E0606810B1BAF1010F15D13F
:10238000206B007821680873206B401C2063E08E6E
:10239000401EE086E08E48B9A06AB0F5005F05D126
:1023A0002068006840F480502168086043E020689D
:1023B000806800F0020002281CD1E08ED0B10298A3
:1023C000012817D1206B007821680873206B401C0E
:1023D0002063E08E401EE08600200290E08E48B927
:1023E000A06AB0F5005F05D12068006840F4805015
:1023F000216808602068806800F0010068B1E08F03
:1024000058B12068C068A16B0870A06B401CA06325
:10241000E08F401EE08701200290FEF73BFFC01BCB
:10242000B04201D3701C00B92EB9032001900120E5
:1024300084F851004DE0E08E0028B8D1E08F0028EC
:10244000B5D1A06AB0F5005F12D133460122114622
:102450002046009701F0F4FD30B1606D40F00200BD
:1024600060650320019034E02068C068039000BFDD
:102470002068806800F01000102809D1606D40F0DD
:10248000020060654FF6EF702168886001200190BE
:102490003A463146204601F08FFD20B101200190DF
:1024A0002020606515E0A06850B900BF00200090B2
:1024B0002068C068009020688068009000BF00BF5E
:1024C000606D10B10120019002E0012084F85100FC
:1024D00000BF00BF002084F8500000BF019887E6CD
:1024E0002DE9F04104460E461546002700BF94F83A
:1024F0005000012802D10220BDE8F081012084F8BB
:10250000500000BF94F85100012801D0022767E075
:1025100006B10DB9012763E0032084F851000020C3
:1025200060652663A586E586A06360642064A08755
:10253000E087A068B0F5004F0BD12068006820F05C
:102540004000216808602068006840F480402168ED
:102550000860A06AB0F5005F0DD100BF2068006878
:1025600020F40050216808602068006840F40050A2
:102570002168086000BF1E48A16C08641D48A16C5A
:10258000C8631D48A16CC8640020A16C0865E38E77
:10259000D4F800C00CF10C02216BA06CFEF732FDE8
:1025A00028B1606D40F010006065012718E02068D8
:1025B000006800F04000402805D02068006840F026
:1025C0004000216808602068406840F020002168D1
:1025D00048602068406840F002002168486000BF01
:1025E00000BF002084F8500000BF384684E7000098
:1025F000293F0008373F0008013F00087047704737
:1026000070B504462546681EB0F1807F01D30120D5
:102610000FE0681E4FF0E02148610F214FF0FF30BE
:1026200002F062F900204FF0E02188610720086184
:10263000002070BD7047704710B504460CB90120EA
:1026400010BD94F83D0028B9002084F83C002046D5
:1026500000F026F8022084F83D00211D206801F0DA
:10266000A3FE012084F8460000BF84F83E0001214B
:102670003F200155402001554120015500BF00BFBA
:10268000012084F842004320015544200155452093
:10269000015500BF012084F83D000020D0E7000074
:1026A00038B504460C492068884214D100BF002088
:1026B00000900A48006840F4003008490860084665
:1026C000006800F40030009000BF00BF05221146F2
:1026D0001920FFF73EF838BD00440140443802405D
:1026E000014691F83D00012801D0012070470220E9
:1026F00081F83D000868C06840F001000B68D860B0
:10270000164B0868984213D00868B0F1804F0FD07C
:10271000134B086898420BD0124B0868984207D0B8
:10272000114B0868984203D0104B086898420CD1AE
:102730000868806800F00702062A0CD00868006864
:1027400040F001000B68186005E00868006840F080
:1027500001000B6818600020C8E70000000001407D
:102760000004004000080040000C00400040014010
:10277000704770B504462068C5682068066906F091
:102780000200022819D105F00200022815D1401FCD
:1027900021680861012020772068806900F003002B
:1027A00018B12046FFF7E4FF05E0204600F097F857
:1027B000204600F095F80020207706F00400042859
:1027C00019D105F00400042815D1C043216808611F
:1027D000022020772068806900F4407018B12046FC
:1027E000FFF7C6FF05E0204600F079F8204600F02C
:1027F00077F80020207706F00800082819D105F0A6
:102800000800082815D1C0432168086104202077FA
:102810002068C06900F0030018B12046FFF7A8FF48
:1028200005E0204600F05BF8204600F059F8002053
:10283000207706F01000102819D105F0100010289C
:1028400015D1C04321680861082020772068C0693D
:1028500000F4407018B12046FFF78AFF05E02046DB
:1028600000F03DF8204600F03BF80020207706F00D
:10287000010048B105F0010030B16FF0010021689E
:102880000861204600F02DF806F08000802809D16C
:1028900005F08000802805D1C043216808612046EA
:1028A000FFF7C8FE06F04000402809D105F04000BF
:1028B000402805D1C04321680861204600F012F885
:1028C00006F02000202809D105F02000202805D19D
:1028D000C043216808612046FFF7ADFE70BD704718
:1028E0007047704770477047704700002DE9F84FF8
:1028F0000446206805682068C668206847694FF06C
:102900000009CA4605F00F09B9F1000F0AD105F018
:10291000200038B106F0200020B1204601F0EEFD85
:10292000BDE8F88FB9F1000F7CD007F0010018B9AD
:1029300006F49070002875D005F0010030B106F45F
:10294000807018B1606C40F00100606405F0040014
:1029500030B107F0010018B1606C40F00200606413
:1029600005F0020030B107F0010018B1606C40F0D2
:102970000400606405F0080048B106F0200010B9BA
:1029800007F0010018B1606C40F008006064606CF2
:10299000002846D005F0200028B106F0200010B134
:1029A000204601F0ABFD20684069C0F3801A606CDE
:1029B00000F0080010B9BAF1000F2DD0204601F048
:1029C00057FD2068406900F04000402820D100BF3A
:1029D00000BF2168143151E8001F21F04000216838
:1029E000143141E80002002AF3D100BFE06B50B17E
:1029F0007748E16B0865E06BFEF75AF988B1E06B48
:102A0000016D88470DE02046FFF76EFF09E009E001
:102A10002046FFF769FF04E02046FFF765FF00202E
:102A200060647DE7206B012878D105F01000002854
:102A300074D006F010000028FAD000BF00200090EB
:102A400020680068009020684068009000BF00BFC8
:102A50002068406900F04000402860D1E06B0068C9
:102A600040681FFA80F8B8F1000F56D0A08D40459D
:102A700053DDA4F82E80E06BC069B0F5807F43D0B1
:102A800000BF00BF21680C3151E8001F21F48070A5
:102A900021680C3141E80002002AF3D100BF00BFD9
:102AA00000BF2168143151E8001F21F001002168A6
:102AB000143141E80002002AF3D100BF00BF00BF7B
:102AC0002168143151E8001F21F0400021681431C1
:102AD00041E80002002AF3D100BF202084F8420020
:102AE0000020206300BF00BF21680C3151E8001FA7
:102AF00021F0100021680C3141E80002002AF3D1D6
:102B000000BFE06BFEF77EF802206063A08DE28DCF
:102B1000801A81B22046FFF7E6FE01E742E0A08D71
:102B2000E18D401A1FFA80F8E08DD0B3B8F1000FA4
:102B300037D000BF00BF21680C3151E8001F21F4DD
:102B4000907021680C3141E80002002AF3D100BFE7
:102B500000BF00BF2168143151E8001F21F00100BF
:102B60002168143141E80002002AF3D100BF20207F
:102B700084F842000020206300BF00BF21680C31B0
:102B800051E8001F21F0100021680C3141E80002DB
:102B9000002AF3D100BF0220606341462046FFF7C0
:102BA000A2FEBDE605F0800030B106F0800018B14D
:102BB000204601F057FEB3E605F0400030B106F0C4
:102BC000400018B1204601F089FCA9E600BFA7E645
:102BD0005D44000810B504460CB9012010BDA06981
:102BE00000B100E000BF94F8410028B9002084F84B
:102BF0004000204600F02AF8242084F84100206894
:102C0000C06820F400502168C860204601F0F4FC40
:102C10002068006920F490402168086120684069BC
:102C200020F02A00216848612068C06840F4005004
:102C30002168C86000206064202084F8410084F886
:102C400042000020606300BFC8E7000010B586B0F6
:102C500004462E492068884255D100BF00BF00209D
:102C600000902B48006840F0100029490860084691
:102C7000006800F01000009000BF00BF00BF00BF60
:102C800000BF0020009022481438006840F0010086
:102C90001F49143908600846006800F001000090E0
:102CA00000BF00BF00BF00BF00BF0020009008466B
:102CB000006840F0010008600846006800F001006C
:102CC000009000BF00BF00BF481501900220029095
:102CD00001200390022004900720059001A90D48CF
:102CE000FEF7EEF94FF4806001900720059001A9EE
:102CF0000848FEF7E5F92520FEF717FD03221146E7
:102D00002520FEF726FD06B010BD00000010014092
:102D1000443802400000024070B504460D46164695
:102D200094F8420020280BD105B10EB9012070BDE6
:102D30000020206332462946204601F073FDF6E765
:102D40000220F4E710B504462049206888423BD1B0
:102D50001F48008800F4004088BB1D48008800F42C
:102D6000804070B11B4800780A2803D00020184921
:102D7000088024E01648008840F400401449088088
:102D80001DE0144800780D2806D11148008840F451
:102D900080400F49088012E00E4800780C490988ED
:102DA000C1F30D010C4A505409480088401C0849E1
:102DB000088008460088C72801DD0020088001221D
:102DC00004490648FFF7A8FF10BD000000100140AD
:102DD000681600206A1600205C440020244500206C
:102DE000704700BFFEE7014608684069C0F38020D5
:102DF000B0B16FF480600A68506100200863202041
:102E000081F83D00002081F83E00086C40F004008D
:102E1000086400BF002081F83C0000BF012070471B
:102E20000020FCE72DE9F8430446884615469946FC
:102E3000DDE908672068006840F480702168086058
:102E4000334600224FF001112046009700F08DF824
:102E500060B12068006800F48070B0F5807F02D116
:102E60004FF4007020640320BDE8F88308F0FE00F2
:102E7000216808613B4632462149204600F0D4F8DB
:102E800008B10120F0E700BF0020009020684069F1
:102E9000009020688069009000BF00BF3A4631462C
:102EA000204600F03EF950B1206C042805D120687E
:102EB000006840F40070216808600120D4E7B9F18F
:102EC000010F03D1E8B22168086117E0C5F30720BC
:102ED000216808613A463146204600F022F950B197
:102EE000206C042805D12068006840F40070216837
:102EF00008600120B8E7E8B2216808610020B3E764
:102F00000200010070B504460D46164625E0204635
:102F1000FFF769FF08B1012070BD681CE8B1FEF73A
:102F2000B9F9801BA84200D8BDB920684069C0F338
:102F3000800090B900202063202084F83D0000200C
:102F400084F83E00206C40F02000206400BF002088
:102F500084F83C0000BF0120DEE720684069C0F330
:102F600080000028D3D00020D6E72DE9F0410446A8
:102F70000D4617461E46DDF8188038E0701CA8B3D1
:102F8000FEF788F9A0EB0800B04200D876BBC5F385
:102F9000074001280AD120684069A9B20840A9B2B7
:102FA000884201D101200BE0002009E020688069FF
:102FB000A9B20840A9B2884201D1012000E0002056
:102FC000B84214D100202063202084F83D00002066
:102FD00084F83E00206C40F02000206400BF0020F8
:102FE00084F83C0000BF0120BDE8F081FFE7C5F395
:102FF000074001280AD120684069A9B20840A9B257
:10300000884201D101200BE0002009E0206880699E
:10301000A9B20840A9B2884201D1012000E00020F5
:10302000B842ABD00020DFE72DE9F04104460D4661
:1030300016461F4658E020684069C0F38020E8B17A
:103040002068006840F40070216808606FF48060B8
:103050002168486100202063202084F83D00002082
:1030600084F83E00206C40F00400206400BF002083
:1030700084F83C0000BF0120BDE8F081701C90B3D3
:10308000FEF708F9C01BB04200D866BBC5F3074085
:1030900001280AD120684069A9B20840A9B2884233
:1030A00001D101200BE0002009E020688069A9B26D
:1030B0000840A9B2884201D1012000E0002090B967
:1030C00000202063202084F83D00002084F83E008A
:1030D000206C40F02000206400BF002084F83C00F9
:1030E00000BF0120C8E7FFE7C5F3074001280AD168
:1030F00020684069A9B20840A9B2884201D10120E4
:103100000BE0002009E020688069A9B20840A9B25C
:10311000884201D1012000E0002000288BD000204F
:10312000AAE770B504460D46164625E02046FFF78F
:103130005AFE08B1012070BD681CE8B1FEF7AAF87C
:10314000801BA84200D8BDB920684069C0F3C010F8
:1031500090B900202063202084F83D00002084F8EE
:103160003E00206C40F02000206400BF002084F866
:103170003C0000BF0120DEE720684069C0F3C010BA
:103180000028D3D00020D6E710B50A480A490860C5
:103190000A484860002108488160C1604FF48041BE
:1031A0000161002141618161C1610162FEF778F82E
:1031B00010BD000000540040403F0020801A06006F
:1031C000FEB504460D4617461E464FF0FF3001235C
:1031D0002A462146CDE9006702900248FEF748F9E9
:1031E000FEBD0000403F0020F8B5054600200090DD
:1031F00028128DF80000E8B28DF8010000240DE0DF
:103200009DF800001D4901F814009DF801000121FE
:1032100001EB4401194A5054601C84B2B4F5A05F1C
:10322000EEDB17484088401E83B215480088401ED8
:1032300082B20021084600F0C7F900BF0022042135
:103240001048FEF721F800BF00BF012208210D48F9
:10325000FEF71AF800BF002606E04FF42051074899
:1032600001F074FC701C86B2042EF6DB00BF012254
:1032700004210448FEF708F800BFF8BD3E170020FF
:10328000301700200000024070B504460D46294664
:10329000204600F08FF90248008800F02FFB70BD37
:1032A0001800002000B587B0142102A8FDF77AF8B5
:1032B00000BF00BF002001902448006840F00200D9
:1032C000224908600846006800F00200019000BF33
:1032D00000BF00BF00BF00BF00200190084600688B
:1032E00040F0020008600846006800F0020001900B
:1032F00000BF00BF00BF00BF00BF00200190084614
:10330000006840F0020008600846006800F0020013
:10331000019000BF00BF00BF042002900120039075
:10332000002004900320059002A90948FDF7C8FE7B
:103330000820029002A90648FDF7C2FE1020029064
:1033400002A90348FDF7BCFE07B000BD30380240BB
:103350000000024010B5FFF7A5FF00F013F911209F
:1033600000F05EFA7820FDF797FEB12000F058FAE1
:10337000012000F037FA2C2000F034FA2D2000F064
:1033800031FAB22000F04CFA012000F02BFA2C2088
:1033900000F028FA2D2000F025FAB32000F040FAC2
:1033A000012000F01FFA2C2000F01CFA2D2000F064
:1033B00019FA012000F016FA2C2000F013FA2D2043
:1033C00000F010FAB42000F02BFA072000F00AFAFF
:1033D000C02000F025FAA22000F004FA022000F03C
:1033E00001FA842000F0FEF9C12000F019FAC5208E
:1033F00000F0F8F9C22000F013FA0A2000F0F2F908
:10340000002000F0EFF9C32000F00AFA8A2000F053
:10341000E9F92A2000F0E6F9C42000F001FA8A2038
:1034200000F0E0F9EE2000F0DDF9C52000F0F8F939
:103430000E2000F0D7F9362000F0F2F9C02000F09D
:10344000D1F9E02000F0ECF90F2000F0CBF91A20C0
:1034500000F0C8F90F2000F0C5F9182000F0C2F9FB
:103460002F2000F0BFF9282000F0BCF9202000F048
:10347000B9F9222000F0B6F91F2000F0B3F91B20A3
:1034800000F0B0F9232000F0ADF9372000F0AAF9E0
:10349000002000F0A7F9072000F0A4F9022000F0B6
:1034A000A1F9102000F09EF9E12000F0B9F90F20F9
:1034B00000F098F91B2000F095F90F2000F092F928
:1034C000172000F08FF9332000F08CF92C2000F049
:1034D00089F9292000F086F92E2000F083F93020A8
:1034E00000F080F9302000F07DF9392000F07AF901
:1034F0003F2000F077F9002000F074F9072000F079
:1035000071F9032000F06EF9102000F06BF92A2009
:1035100000F086F9002000F065F9002000F062F963
:10352000002000F05FF97F2000F05CF92B2000F014
:1035300077F9002000F056F9002000F053F9002040
:1035400000F050F99F2000F04DF9F02000F068F9EC
:10355000012000F047F9F62000F062F9002000F0A9
:1035600041F93A2000F05CF9052000F03BF92920F0
:1035700000F056F9022000F083F94FF47840FFF78D
:1035800033FE10BD10B500BF002210210848FDF722
:103590007BFE00BF6420FDF77FFD00BF01221021EC
:1035A0000348FDF771FE00BF3220FDF775FD10BD29
:1035B0000000024070B504460D462B4622462946BF
:1035C000204600F001F870BD2DE9F04104460D469B
:1035D00016461F461149887A00F022F9002000F0B3
:1035E00001F9E0B200F0FEF8002000F0FBF8F0B2C4
:1035F00000F0F8F80949087B00F012F9002000F00B
:10360000F1F8E8B200F0EEF8002000F0EBF8F8B2C4
:1036100000F0E8F800F022F9BDE8F0813017002052
:103620002DE9FF4F83B081468A469346DDE9106459
:10363000404800880290A6F12000C6B204EBD47086
:1036400009EB6000401E82B20AEB0400401E83B208
:10365000514648460194FFF7B7FF129850BB00252A
:1036600025E00C2C07D106EB4600334901EB800026
:1036700010F8058004E0314800EB061010F80580D2
:1036800000270DE008F0010018B1584600F036F9A7
:1036900002E0069800F032F94FEA6808781CC7B2D9
:1036A00004EBD471B7EB610FECDB681CC5B2A5422B
:1036B000D7DB2DE0002529E00C2C07D106EB4600D6
:1036C0001D4901EB800010F8058004E01B4800EB69
:1036D000061010F80580002711E01648A0F800B089
:1036E00008F0010038B10AEB050291B209EB0702BC
:1036F00090B2FFF7C9FD4FEA6808781CC7B204EB27
:10370000D471B7EB610FE8DB681CC5B2A542D3DB0F
:103710000849029808800A484088401E83B2084839
:103720000088401E82B200210846FFF74DFF07B017
:10373000BDE8F08F18000020CA4B00083E5000087A
:10374000301700202DE9FF4F83B0074691461E46F3
:10375000129C4FF0000A00253FE0701B401EC1B2D2
:103760000A2001F0ADF9B9FBF0F00A21B0FBF1F24B
:1037700001FB1208BAF1000F19D1701EA84216DD24
:10378000B8F1000F11D100202021A346CDE900148B
:10379000029004EBDB71491001FB057188B2DDE991
:1037A00010230499FFF73CFF15E04FF0010A0021B8
:1037B00008F13000C0B2A346CDE90141009004EB0E
:1037C000DB71491001FB057188B2DDE91023049912
:1037D000FFF726FF00BF681CC5B2B542BDDB07B0CE
:1037E000BDE8F08F01B500BF002204210B48FDF7B2
:1037F0004BFD00BF00BF012208210848FDF744FD32
:1038000000BF0121684601F0A1F900BF0122042197
:103810000248FDF739FD00BF08BD0000000002406E
:1038200001B500BF002204210B48FDF72DFD00BFAC
:1038300000BF002208210848FDF726FD00BF012136
:10384000684601F083F900BF012204210248FDF718
:103850001BFD00BF08BD00000000024010B502497A
:10386000087AFFF7DDFF10BD3017002070B5054660
:103870000C462846FFF7D4FFE0B2FFF7B3FF70BD58
:1038800010B504462A201C4948812B2088812C2011
:10389000088134B1012C0ED0022C16D0032C28D173
:1038A0001DE0802014490880A0204880C0213620D7
:1038B000FFF7DCFF1EE0A0200F4908808020488031
:1038C000A0213620FFF7D2FF14E080200A490880AB
:1038D000A020488000213620FFF7C8FF0AE0A02082
:1038E000054908808020488060213620FFF7BEFF10
:1038F00000E000BF00BF10BD3017002038B50446FF
:10390000002000902012009000BF002204210E48E9
:10391000FDF7BAFC00BF00BF012208210A48FDF7ED
:10392000B3FC00BF0121684601F010F9E0B200903D
:103930000121684601F00AF900BF01220421024872
:10394000FDF7A2FC00BF38BD0000024000BFFEE74B
:103950007047000070B500240CE0002506E0002050
:10396000074901EBC5010855681CC5B2802DF6DB7F
:10397000601CC4B2082CF0DB00F0F6F870BD00004B
:10398000943F002070B50B46CE1701EB5676C6F378
:10399000C702CE1701EB5676F610A1EBC606F4B2BD
:1039A0000123A340DDB20E4B03EBC0039B5CDB4362
:1039B0000B4E06EBC006B354094B03EBC0039B5CF4
:1039C0002B43074E06EBC006B354054B03EBC00375
:1039D0009B5CDB43024E06EBC006B35470BD000097
:1039E000943F002010B504461CB90021A62000F029
:1039F00044FA012C03D10021A72000F03EFA10BDAB
:103A000010B504463CB90021C82000F036FA002168
:103A1000A12000F032FA012C07D10021C02000F0D3
:103A20002CFA0021A02000F028FA10BD70B50A463B
:103A3000CE1701EB5676C6F3C703CE1701EB5676C9
:103A4000F610A1EBC606F4B20122A240D5B2054A97
:103A500002EBC002D25C2A43024E06EBC006F254CF
:103A600070BD0000943F002010B50021AE2000F092
:103A700004FA0021084600F000FA0021102000F0AE
:103A8000FCF90021402000F0F8F90021812000F02D
:103A9000F4F90021CF2000F0F0F90021A12000F07E
:103AA000ECF90021C82000F0E8F90021A62000F080
:103AB000E4F90021A82000F0E0F900213F2000F007
:103AC000DCF90021D32000F0D8F90021084600F0ED
:103AD000D4F90021D52000F0D0F90021802000F099
:103AE000CCF90021D92000F0C8F90021F12000F024
:103AF000C4F90021DA2000F0C0F90021122000F002
:103B0000BCF90021DB2000F0B8F90021402000F0D2
:103B1000B4F90021202000F0B0F90021022000F0CB
:103B2000ACF900218D2000F0A8F90021142000F04C
:103B3000A4F90021A42000F0A0F90021A62000F0A3
:103B40009CF90021AF2000F098F9FFF703FF10BDAA
:103B500010B50246012000E050430B1EA1F1010404
:103B6000E1B2F9D110BD000010B5A0B0002421E0F1
:103B700004F1B001C8B2002100F07FF9002108462D
:103B800000F07BF90021102000F077F9002007E019
:103B90000A4901EBC001095D0DF80010411CC8B2D3
:103BA0008028F5DB6B46802240217820FFF708FB58
:103BB000601CC4B2082CDBDB20B010BD943F002099
:103BC0002DE9FF4F81B080460E461C4600962046E8
:103BD000E31704EB5373DB1021464FEAE47C04EB5C
:103BE0005C7C4FEAEC0CA4EBCC0CBCF1000F02D0D7
:103BF0004FF0010C01E04FF0000C6344224604EB4F
:103C0000D27C4FEA6C0C03FB0CF303F0FF0B039820
:103C10002038C7B2002547E00C2C07D107EB47003E
:103C2000234901EB800010F805A014E0102C05D109
:103C3000204800EB071010F805A00CE0182C07D165
:103C400007EBC7001C4901EB800010F805A002E05B
:103C500005B0BDE8F08F4FF000091FE00AF08000CA
:103C600020B131464046FFF7E1FE03E031464046D1
:103C7000FFF788FE4FEA4A604FEA106A701CC6B22E
:103C80000098301AA04205D1009E08F1010000F012
:103C9000FF0806E009F1010000F0FF09B9F1080F83
:103CA000DCDB00BF681CC5B25D45B5DB00BFCFE7FC
:103CB00078620008EC660008DC6C00082DE9FF4F14
:103CC0000746884691461C464FF0000B0297CDF8F8
:103CD00004802046E11704EB5171C1F3C701009144
:103CE00060E009FB04F0C11700EB51710BEBE1013F
:103CF000CEB20BF1010000F0FF0B002550E0102CBC
:103D000005D12C4800EB0610405D03901BE0182CF9
:103D100007D106EBC600284901EBC000405D0390C7
:103D200011E0202C05D1254800EBC610405D039022
:103D300009E0402C05D1224800EB4620405D03906D
:103D400001E0BDE8FF8F4FF0000A17E0039800F094
:103D5000010020B141463846FFF768FE03E04146C6
:103D60003846FFF70FFE03984010039008F101005A
:103D700000F0FF080AF1010000F0FF0ABAF1080F95
:103D8000E4DB781CC7B20298381AA04204D1029F23
:103D900001980830C0B20190DDF80480681CC5B2FB
:103DA000A542ACDB0098411EC9B20091002898D111
:103DB00000BFC6E72902002089030020610400201B
:103DC000610600202DE9F04F06468A4691461F46BF
:103DD000099C00252CE0781B401EC1B20A20FFF789
:103DE000B7FEB9FBF0F00A21B0FBF1F201FB1208BB
:103DF000B8F1000F0CD1A34604EBDB71491001FBB5
:103E00000561C8B2234630225146FFF7D9FE0DE0C6
:103E1000A34604EBDB71491001FB0561C8B208F150
:103E20003001CAB223465146FFF7CAFE681CC5B22C
:103E3000BD42D0DBBDE8F08FF0B506460F46144614
:103E40001D4613E022782B4639463046FFF7B8FE70
:103E5000284605EBD07106EB6101CEB2C5F18000BA
:103E6000B04202DA0026B81CC7B2641C20782028B1
:103E700002DB20787E28E5DDF0BD13B50C4634B1B9
:103E80006B46012240217820FFF79AF905E06B4646
:103E9000012200217820FFF793F91CBD7047000034
:103EA00000B587B04FF0C0624FF480010020FDF7ED
:103EB000E3FD00BF00BF002001900F48006840F004
:103EC00001000D4908600846006800F001000190FB
:103ED00000BF00BF00BF88150290022003900020A1
:103EE0000490032005900020069002A90348FDF7E6
:103EF000E7F807B000BD0000303802400000024083
:103F000070B50546AC6B2068406820F0030021685E
:103F10004860606D40F010006065012084F8510039
:103F20002046FEF757F870BD70B50446A56B2846CD
:103F3000FEF765FB70BDF8B50546AC6BFDF7AAF959
:103F400006462868006800F48070B0F5807F2DD0A8
:103F50002068406820F020002168486020684068A0
:103F600020F002002168486032466421204600F0BB
:103F700023F818B1606D40F020006065A06850B96A
:103F800000BF002000902068C06800902068806812
:103F9000009000BF00BF0020E086012084F851009F
:103FA000606D18B12046FEF715F8F8BD2046FEF703
:103FB00025FB00BFF9E700007CB504460E46154618
:103FC0003346012202212046009500F039F828B13D
:103FD000606D40F02000606503207CBD16480068DD
:103FE0001821B0FBF1F01549B0FBF1F04FF47A71F4
:103FF000484301906068B0F5827F0DD133460022BE
:1040000080212046009500F01BF898B1606D40F0CB
:10401000200060650320E0E700BF019800B908E0D8
:104020000198401E019020688068C0F3C0100028ED
:10403000F3D100BF0020D0E70000002040420F0075
:104040002DE9F84F04460D4690461E46DDF82890AF
:10405000FDF720F9A0EB0900371AFDF71BF982469E
:104060002C480068C0F3CB307843009045E0701CCA
:10407000002842D0FDF70EF9A0EB0A00B84200D2AA
:10408000A7BB2068406820F0E000216848606068B5
:10409000B0F5827F0DD1A068B0F5004F03D0A068C5
:1040A000B0F5806F05D12068006820F040002168DD
:1040B0000860A06AB0F5005F0DD100BF20680068FD
:1040C00020F40050216808602068006840F4005027
:1040D0002168086000BF012084F8510000BF002063
:1040E00084F8500000BF0320BDE8F88FFFE7009878
:1040F00000B900270098401E009020688068284082
:10410000A84201D1012000E000204045AFD10020AD
:10411000EAE7000000000020704700002DE9FF4F93
:1041200083B0064688469146DDE91147109DB246A8
:104130004FF0000B71E0BBF1000F40D104EBD471E4
:10414000384A1288A2EB6101B14204DB3549498843
:10415000091B414502DA07B0BDE8F08F28788028B6
:1041600002DD4FF0010B58E028780D2806D108EB4E
:1041700004001FFA80F856466D1C1EE0102C0DDD61
:10418000102128788DE883004A4641463046069B38
:10419000FFF746FA06F1080086B20EE028788DE8AF
:1041A00091004A4641463046069BFFF739FA2046C1
:1041B00004EBD07106EB61018EB26D1C2DE0194845
:1041C0000088001BB04204DB16484088001B4045B5
:1041D00000DAC0E74FF0000B202C08D1CDE90057E2
:1041E0004A4641463046069BFCF788FC12E0182CF4
:1041F00008D1CDE900574A4641463046069BFCF7B8
:10420000F1FB07E0CDE900574A4641463046069BA0
:10421000FCF764FBAD1C301986B2287800288AD1DF
:1042200000BF98E73017002010B5FDF72DFA10BD3C
:104230002DE9F04192B00446884615461E460027F7
:10424000302106A8FCF7AEF8142101A8FCF7AAF863
:1042500000BF002000902548006840F080502349AE
:1042600008600846006800F08050009000BF00BF62
:1042700000BF002000901E48006820F4404040F439
:1042800000401B4908600846006800F44040009068
:1042900000BF00BF012006900004079002200C9090
:1042A00041050D91CDF838800F941095119606A810
:1042B000FDF742FC07461FB1012012B0BDE8F081B6
:1042C0000F20019002200290002003904FF48050B4
:1042D000049000200590022101A8FDF78DFA074601
:1042E0000FB10120E9E70020E7E700004038024075
:1042F000007000400348006840F470000149086005
:104300007047000088ED00E010B5532141F287307E
:1043100000F032F810BD30B50446002504E04FF43B
:104320007A7000F005F86D1CA542F8D330BD00008E
:1043300010B5024600230B4C21680FE0094C2068A1
:1043400088420BD0884201D9431A04E0054C083456
:1043500024680444631A934200D300E0EEE700BFF0
:1043600010BD00002444014010B50248FEF701FAD8
:1043700010BD00001444002070B505460C460848E6
:10438000084908600846446000218160C5600161F9
:1043900080218161FEF750F90248FEF7A1F970BD56
:1043A000004401401444002010B50268244B984298
:1043B0000BD0B0F1804F08D0224B984205D0224B51
:1043C000984202D0214B984203D122F070024B68F0
:1043D0001A431B4B984214D0B0F1804F11D0194BA7
:1043E00098420ED0184B98420BD0184B984208D0E8
:1043F000174B984205D0174B984202D0164B984263
:1044000003D122F44072CB681A4322F080034C6936
:1044100043EA040202608B68C3620B688362084B44
:10442000984201D10B69036301234361036903F0DF
:1044300001031BB1036923F00103036110BD0000F8
:10444000000001400004004000080040000C004053
:1044500000400140004401400048014070B505465D
:10446000AC6B0020E085E0842046FEF73DFA70BD8D
:1044700000BF00BF02680C3252E8002F22F4907196
:1044800002680C3242E80013002BF3D100BF00BFDA
:1044900000BF0268143252E8002F22F001010268C6
:1044A000143242E80013002BF3D100BF016B012945
:1044B0000ED100BF00BF02680C3252E8002F22F07C
:1044C000100102680C3242E80013002BF3D100BF48
:1044D000202180F8421000210163704710B5044686
:1044E0002068C06820F040002168C860202084F85F
:1044F00041002046FEF774FC002010BDF8B50446CC
:1045000094F84200222875D1A068B0F5805F0CD1E4
:10451000206950B90025A66A20684068C0F30800E9
:104520003080A06A801CA06215E0A56A0026A06801
:10453000B0F5805F03D0A06828B9206918B9206859
:104540004068287004E02068406800F07F00287010
:10455000A06A401CA062E08D401E80B2E085002869
:1045600046D12068C06820F020002168C86020681B
:10457000C06820F480702168C8602068406920F01D
:10458000010021684861202084F842000020606317
:10459000206B012826D10020206300BF00BF2168C6
:1045A0000C3151E8001F21F0100021680C3141E866
:1045B0000002002AF3D100BF2068006800F010005C
:1045C00010280AD100BF00200090206800680090E9
:1045D00020684068009000BF00BFA18D2046FEF714
:1045E00082F902E02046FEF7ADFB0020F8BD01E0B5
:1045F0000020FBE70220F9E72DE9F84F0446206888
:10460000006920F44050E16808432168086121698D
:10461000A068084361690843E16908430090206885
:10462000C06849F20C618843009908432168C8605A
:104630002068406920F44070A169084321684861FE
:1046400076492068884203D075492068884203D1A2
:10465000FDF7AAF9814602E0FDF796F98146E06987
:10466000B0F5004F6CD102206168A0FB01500346F9
:104670001920A9FB007001462A463846FBF71BFEAD
:104680006421B0FBF1F04FEA001A02206168A0FB40
:1046900001510B461920A9FB00712A463846FBF749
:1046A0000AFE834602206168A0FB015003461920E0
:1046B000A9FB00712A463846FBF7FDFD6421B0FBDB
:1046C000F1F000EBC00101EB0010ABEB80003221F8
:1046D00001EBC0006421B0FBF1F000F0F8000AEB40
:1046E000400A02206168A0FB015003461920A9FB83
:1046F000007001462A463846FBF7DDFD834602205E
:104700006168A0FB015003461920A9FB00712A46ED
:104710003846FBF7D0FD6421B0FBF1F000EBC0019F
:1047200001EB0010ABEB8000322101EBC0006421F3
:10473000B0FBF1F000F007005044216888606AE0A7
:1047400004206168A0FB015003461920A9FB0070FA
:1047500001462A463846FBF7AEFD824604206168D2
:10476000A0FB015003461920A9FB007001462A4610
:104770003846FBF7A0FD6421B0FBF1F000EBC0016F
:1047800001EB0010AAEB8000322101EB0010642144
:10479000B0FBF1F000F0F00A04206168A0FB0170AA
:1047A00003461920A9FB00513A462846FBF783FD32
:1047B0006421B0FBF1F00AEB001A04206168A0FB51
:1047C00001510B461920A9FB00712A463846FBF718
:1047D00072FD834604206168A0FB01500346192046
:1047E000A9FB007001462A463846FBF764FD6421A8
:1047F000B0FBF1F000EBC00101EB0010ABEB80006F
:10480000322101EB00106421B0FBF1F000F00F0049
:10481000504421688860BDE8F88F00000010014016
:104820000014014010B5034699629A85DA8500208C
:104830005864222083F84200186928B11868C068BB
:1048400040F480701C68E0601868406940F0010026
:104850001C6860611868C06840F020001C68E06057
:10486000002010BD014691F84100212828D1886818
:10487000B0F5805F0BD1086948B90A6A1088C0F3A7
:1048800008000B685860086A801C086205E00B6A23
:10489000581C086218780B685860C88C401E80B29B
:1048A000C88458B90868C06820F080000B68D860D8
:1048B0000868C06840F040000B68D860002070476E
:1048C0000220FCE710B50248FEF710F810BD00000A
:1048D0002445002000BFFEE702480068C0F3022024
:1048E000704700000CED00E010B5002804DB0A075B
:1048F000130E054A135406E00A07140E034A00F08B
:104900000F031B1FD45410BD00E400E018ED00E0BD
:1049100000BF704700B587B000BF00BF0020019006
:104920001148006840F004000F490860084600681C
:1049300000F00400019000BF00BF00BF4FF4005022
:1049400002900120039004900220059002A90748DC
:10495000FCF7B6FB00BF012251030448FCF794FCAE
:1049600000BF07B000BD0000303802400008024020
:1049700008B5FCF795FE042302221921A820FFF7B1
:1049800057FCFFF7C1FCFFF7C5FF4FF4E13000F023
:10499000EFF8FBF7DFFD00F09FF8FEF7DBFCFEF71A
:1049A000F3FBFFF77DFAFBF709FEFFF75DF8002048
:1049B000FFF718F80020FFF723F86EE04FF4FA70C5
:1049C000FFF7A9FCFEF7C6FF102334A22021142014
:1049D000FFF732FA102334A230210020FFF72CFA1F
:1049E000102333A230213F20FFF726FA102332484C
:1049F000027830210846FFF7E3F82F480078401C82
:104A00002D490870084600787E2801DD20200870B6
:104A10001020032300902848027830216720FFF7F8
:104A2000D1F9FFF7A1F84FF4FA70FFF774FCFEF725
:104A300091FF1023002211461046FFF73FF918237B
:104A4000002211461020FFF739F9202300221421FB
:104A50001820FFF733F94023002211461846FFF7CC
:104A60002DF9FFF781F84FF4FA70FFF754FCFEF7C9
:104A700071FF0C2311A200210846FFF7DDF9102376
:104A80000EA20C210020FFF7D7F918230BA21C213E
:104A90000020FFF7D1F9FFF767F88FE732303134A4
:104AA0002F30352F3031000041534349493A00003F
:104AB000434F44453A0000001700002041424300A4
:104AC00010B50246012000E050430B1EA1F1010485
:104AD000E1B2F9D110BD000010B5124812490860CA
:104AE0004FF48270486000210F488160C16002214C
:104AF000016101214161490281610021C1610162BD
:104B0000416281620A21C162FDF765FA06480068C8
:104B1000006840F04000044909680860FF2000F088
:104B200005F810BD003001407816002001B582B0B4
:104B30004FF47A70012301AA02A900900248FDF700
:104B400043FB9DF804000EBD7816002070B50446A6
:104B50000D462A4621460548FDF7C2FC00BF034822
:104B600090F851000328FAD070BD0000781600209C
:104B700010B5044609480A49086008464460002107
:104B80008160C160016181610C214161FEF722F801
:104B9000012204490248FEF7BFF810BD0010014091
:104BA000244500206A1600204FF04070E1EE100A04
:104BB0007047000000000000000001020304060727
:104BC00008090000000001020304000000000000CA
:104BD00000000000000000000404040404040004B9
:104BE000000000140A0A000000000000000000009D
:104BF00014143F140A3F0A0A000000041E1505069B
:104C00000C14150F0400000012150D0A142C2A12A2
:104C100000000000040A0A1E1515093600000002F3
:104C20000201000000000000000000201008080839
:104C300008080810200000020408080808080804F2
:104C4000020000000004150E0E1504000000000014
:104C50000404041F0404040000000000000000001D
:104C600000000002020100000000001F0000000020
:104C70000000000000000000000000020000001022
:104C80000808080404020202010000000E111111BC
:104C90001111110E00000000040604040404040EA7
:104CA000000000000E1111080402011F00000000A6
:104CB0000E11100C1010110E00000000080C0A0A52
:104CC000091E0818000000001F01010F1010110E2E
:104CD000000000000E09010F1111110E000000006C
:104CE0001F09080404040404000000000E11110E42
:104CF0001111110E000000000E1111111E10120EE4
:104D0000000000000000040000000004000000009B
:104D10000000000400000004040000201008040249
:104D2000040810200000000000001F00001F000009
:104D30000000000204081020100804020000000017
:104D40000E11110804040004000000000E111915D2
:104D5000151D011E0000000004040C0A0A1E123377
:104D6000000000000F12120E1212120F00000000BD
:104D70001E1101010101110E000000000F1212129C
:104D80001212120F000000001F120A0E0A02121F58
:104D9000000000001F120A0E0A02020700000000B5
:104DA0001C1201013911120C000000003312121EF6
:104DB00012121233000000001F0404040404041F34
:104DC000000000003E080808080808090700000065
:104DD00037120A060A0A1237000000000702020210
:104DE0000202223F000000001B1B1B1B151515159E
:104DF000000000003B1216161A1A121700000000DD
:104E00000E1111111111110E000000000F12120EDF
:104E100002020207000000000E1111111117190EF5
:104E2000180000000F12120E0A12123700000000C4
:104E30001E1101060810110F000000001F150404C8
:104E40000404040E00000000331212121212120C9D
:104E5000000000003312120A0A0C040400000000D3
:104E60001515150E0A0A0A0A000000001B0A0A049A
:104E7000040A0A1B000000001B0A0A040404040EB2
:104E8000000000001F0908040402121F0000001C9B
:104E900004040404040404041C00000202020404C8
:104EA000080808100000000E08080808080808088C
:104EB0000E0000040A0000000000000000000000D6
:104EC0000000000000000000003F0004000000009F
:104ED00000000000000000000000000C121C123C4A
:104EE000000000000302020E1212120E0000000069
:104EF0000000001C1202021C000000001810101C10
:104F00001212123C000000000000000C121E021CD5
:104F1000000000003804041E0404041E0000000009
:104F20000000003C120C021E221C00000302020EB4
:104F30001212123700000000040000060404040EE0
:104F4000000000000800000C08080808080700001E
:104F50000302023A0A0E123700000000070404049C
:104F60000404041F000000000000000F15151515B3
:104F7000000000000000000F1212123700000000B5
:104F80000000000C1212120C000000000000000FC4
:104F90001212120E020700000000001C1212121C56
:104FA000103800000000001B06020207000000008D
:104FB0000000001E020C101E000000000004040E81
:104FC00004040418000000000000001B1212123C30
:104FD0000000000000000037120A0C04000000006E
:104FE00000000015150E0A0A000000000000001B5A
:104FF0000A040A1B0000000000000037120A0C041B
:10500000040300000000001E0804041E0000001835
:10501000080808040808080818000808080808080C
:105020000808080808080006040404080404040426
:10503000060002251800000000000000000000002B
:105040000000000000000000000000000000000060
:1050500000080808080808080000181800000048A0
:105060006C2412000000000000000000000000009E
:10507000002424247F1212127F121212000000005A
:10508000081C2A2A0A0C1828282A2A1C08080000AA
:105090000022251515152A585454542200000000EA
:1050A000000C1212120A76252911916E00000006DA
:1050B00006040300000000000000000000000040A3
:1050C00020101008080808080810102040000002EE
:1050D0000408081010101010100808040200000046
:1050E000000008086B1C1C6B080800000000000092
:1050F0000000080808087F080808080000000000F1
:10510000000000000000000000000606040300008C
:10511000000000000000FE00000000000000000091
:105120000000000000000000000006060000000073
:1051300080404020201010080804040202000000F3
:105140000018244242424242424224180000000019
:1051500000080E08080808080808083E00000000BB
:10516000003C4242422020100804427E0000000021
:10517000003C4242201820404042221C0000000017
:1051800000203028242422227E20207800000000E5
:10519000007E0202021A26404042221C000000004B
:1051A00000382402021A264242422418000000005D
:1051B000007E2222101008080808080800000000DD
:1051C000003C4242422418244242423C000000007B
:1051D00000182442424264584040241C0000000051
:1051E000000000001818000000001818000000005F
:1051F0000000000000080000000000080804000093
:1052000000402010080402040810204000000000A4
:10521000000000007F0000007F0000000000000090
:1052200000020408102040201008040200000000C2
:10523000003C4242464020101000181800000000B8
:10524000001C225A555555552D42221C00000000C5
:10525000000808181414243C224242E70000000011
:10526000001F2222221E22424242221F0000000072
:10527000007C4242010101010142221C00000000A9
:10528000001F2242424242424242221F00000000CE
:10529000003F4212121E12120242423F0000000062
:1052A000003F4212121E121202020207000000000A
:1052B000003C2222010101712122221C0000000079
:1052C00000E7424242427E42424242E70000000082
:1052D000003E0808080808080808083E000000000A
:1052E000007C10101010101010101010110F000082
:1052F000007722120A0E0A12122222770000000002
:1053000000070202020202020202427F00000000C5
:105310000077363636362A2A2A2A2A6B0000000001
:1053200000E346464A4A5252526262470000000079
:10533000001C2241414141414141221C000000002A
:10534000003F424242423E020202020700000000C9
:10535000001C2241414141414D53321C600000007C
:10536000003F4242423E1212222242C70000000089
:10537000007C4242020418204042423E00000000ED
:10538000007F4908080808080808081C00000000F9
:1053900000E74242424242424242423C0000000098
:1053A00000E74242222424141418080800000000D8
:1053B000006B494949495555362222220000000018
:1053C00000E7422424181818242442E700000000B3
:1053D00000772222141408080808081C00000000A6
:1053E000007E2120101008040442423F0000007893
:1053F00008080808080808080808080878000000D5
:105400000202040408080810102020204040001E5A
:105410001010101010101010101010101E00003876
:105420004400000000000000000000000000000038
:1054300000000000000000000000000000FF000667
:105440000800000000000000000000000000000054
:1054500000000000003C4278444242FC0000000092
:1054600000030202021A26424242261A00000000ED
:10547000000000000038440202024438000000002E
:105480000060404040784442424264D8000000003E
:1054900000000000003C427E0202423C000000008E
:1054A00000F08808087E08080808083E0000000090
:1054B00000000000007C22221C023C42423C000012
:1054C00000030202023A4642424242E70000000064
:1054D000000C0C00000E08080808083E0000000040
:1054E000003030000038202020202020221E000024
:1054F000000302020272120A161222770000000054
:10550000000E0808080808080808083E0000000007
:1055100000000000007F9292929292B7000000007B
:1055200000000000003B4642424242E7000000000B
:1055300000000000003C42424242423C00000000A9
:1055400000000000001B26424242221E020700000B
:1055500000000000007844424242447840E00000ED
:105560000000000000774C040404041F0000000049
:1055700000000000007C42023C40423E000000006F
:1055800000000008083E0808080808300000000075
:105590000000000000634242424262DC0000000062
:1055A0000000000000E74224241408080000000066
:1055B0000000000000EB4949555522220000000080
:1055C00000000000007624181818246E0000000067
:1055D0000000000000E74224241418080807000017
:1055E00000000000007E22100808447E000000C079
:1055F000202020202010202020202020C00010105B
:1056000010101010101010101010101010100006B4
:1056100008080808081008080808080806000C32DE
:10562000C200000000000000000000000000C9EE01
:10563000000027FC140414A48110420840401040CC
:1056400017FC2040E0E0215022482C46204000403A
:10565000DBDA11041124112411241124FD24112456
:1056600011241124112411241D24E12442240204B4
:105670000404CAD00200010000007FFC0100010008
:1056800001003FF8210821082108210821282110C4
:1056900001000100C8AB000000000180024004309E
:1056A000180860061FF90100010001003FF8010021
:1056B000010001007FFEB6AF0000000000203E2088
:1056C000007C002200227F221022102212221222AD
:1056D000224223423D82009CB5E700000100010008
:1056E0001FF0610C410441047FFC4104410441046A
:1056F0007FFC01000102010201FCD7D30000000081
:105700003FF8001000600080010000807FFE004034
:10571000004000200020002018400780BCBC102062
:105720001020102013FEFC201020102015FC1884DF
:105730003088D04810501020105051882606CAF5E5
:1057400001000120011001107FFC0380054005408D
:10575000092011102108410481020100010001000B
:10576000D3D002000200FFFE040004000FF0081076
:1057700018102FF0481088100FF00810081008506B
:105780000820CFDE00007BF84A08520853F8620870
:1057900052084BF84A444A486A3052204210428824
:1057A00043064200B9AB00800480048008400840F2
:1057B0001020201042088206040004400820102017
:1057C0003FF010100000CBBE00003FF800080008BA
:1057D0007FE8000800081F8810881088108810884B
:1057E0001F88108800280010BBB600800080FC8055
:1057F00004FC050449082A401440104028A024A0B5
:1058000045108110020804040802D3AD0000208076
:10581000133C122402240224F2241224122412B46F
:10582000132812201020282047FE0000C4FA090087
:10583000090011FC32045448995011481244144490
:105840001140108002005104511290120FF0B4BFA9
:1058500000000020102013FE202026244A247A2451
:105860001224222423FC7C20002204227822003CE3
:10587000C9AB0000000004000FF0102020207FFCC6
:1058800020842084208420843FF8200020022002ED
:105890001FFECCEE00000000204023FE204079FCDB
:1058A000220423FC220423FC220423FC3A0465FA8C
:1058B00001980204B3E40000010001007FFE022011
:1058C0000410040808043FFC04420440044004425D
:1058D00008421042607EBED800000000207E3E805C
:1058E0004880488048FE48827F8208820C8214FAF1
:1058F00012842280218040FED0CE000000007F84F0
:105900002208223022C0220222047FC8223022C272
:1059100022022204220822304040BBAD00000000D9
:105920007FFE00000FF011101110111051125FF2E4
:105930005112511251124FF240027FFCD4B20000BA
:1059400000007FFE47E24812481247E24FF2501231
:1059500050125112511242924472580A3FFCCDBC6F
:10596000000000003FFE440247F24C225362408296
:1059700043625E1A41824062430240C240223FFCC1
:10598000C6AC000000402040204020403FFE2000E8
:10599000200020003FE02010201020102010401098
:1059A0004010CFD4000000003FFC200420043FFC46
:1059B000200420041FF824441448144814480C50B0
:1059C00004407FFECABE000000003FFC0000000053
:1059D00000007FFE008008900888108810842084D2
:1059E000208240820780B2CB0000002008207FFE8A
:1059F000002000783F881108089009207FFE018070
:105A000003400D30310C4002B5A500000010081015
:105A100004203FF8210421043FFC210421043FF825
:105A200001007FFE010001000100D6D0000001004E
:105A3000010001003FFC2104210421042104210470
:105A400021043FFC0100010001000100D3A200007D
:105A5000000008207FFE0820092001003FF82108EF
:105A6000210821081FF4014002200C10700ECEC442
:105A700000000100010000803F7C081008100410A5
:105A80000420022002400180018002601C18E00610
:105A9000D7DB00000000102011FE2202220249FC88
:105AA0005800300013FE2528792401240D24722289
:105AB00002A2BACF000000000180024004301808A2
:105AC00060061FF800001FF82004200420042004B2
:105AD00020041FF8C1C10000010001007FFE00008A
