:020000040800F2
:100000007006002035020008E90F0008E10F000823
:10001000E50F00082B040008DD10000800000000B8
:10002000000000000000000000000000ED0F0008CC
:100030002F04000800000000EB0F0008EF0F00087D
:100040004F0200084F0200084F0200084F0200084C
:100050004F0200084F0200084F0200084F0200083C
:100060004F0200084F0200084F0200084F0200082C
:100070004F0200084F0200084F0200084F0200081C
:100080004F0200084F0200084F0200080000000065
:100090000000000000000000000000004F02000807
:1000A0004F0200084F0200084F0200084F020008EC
:1000B0004F0200084F0200084F0200084F020008DC
:1000C0004F0200084F0200084F0200084F020008CC
:1000D0004F0200084F0200084F0200080000000015
:1000E0004F0200084F0200084F0200080000000005
:1000F0000000000000000000000000004F020008A7
:10010000000000004F0200084F0200084F020008E4
:1001100000000000000000000000000000000000DF
:100120004F0200084F0200084F0200084F0200086B
:100130004F02000800000000000000000000000066
:100140000000000000000000000000004F02000856
:100150004F0200084F0200084F0200084F0200083B
:100160004F0200084F0200080000000000000000DD
:10017000000000000000000000000000000000007F
:10018000000000004F020008000000000000000016
:100190004F02000800F002F800F03CF80AA090E8D6
:1001A000000C82448344AAF10107DA4501D100F032
:1001B00031F8AFF2090EBAE80F0013F0010F18BFC3
:1001C000FB1A43F001031847B80F0000D80F0000D6
:1001D000103A24BF78C878C1FAD8520724BF30C873
:1001E00030C144BF04680C60704700000023002445
:1001F00000250026103A28BF78C1FBD8520728BF37
:1002000030C148BF0B6070471FB500F0A7FF1FBD8E
:1002100010B510BD00F0CFF81146FFF7F5FF00F064
:100220007BFF00F0EDF803B4FFF7F2FF03BC00F032
:10023000F5F800000948804709480047FEE7FEE757
:10024000FEE7FEE7FEE7FEE7FEE7FEE7FEE7FEE786
:1002500004480549054A064B70470000C9100008CC
:100260009501000870000020700600207002002038
:100270007002002053EA020C00F069802DE9F04B77
:100280004FF00006002B1FBFB3FA83F503FA05F405
:1002900024FA05F65E4012BF1643B2FA82F502FA5E
:1002A00005F4C5F120051EBF22FA05FC44EA0C0442
:1002B000203556EA044C4FEA144418BF641C4FF032
:1002C00000084FF00009904271EB030C39D300296C
:1002D00019BFB1FA81F701FA07F6B0FA80F700FA10
:1002E00007F6C7F120071EBF20FA07FC46EA0C06F6
:1002F0002037B6FBF4FCA7EB0507103F07F01F0BF8
:10030000CBF120060CFA0BFB2CFA06F644BFB346E1
:100310000026202FA4BF5E464FF0000B5BEA060CC0
:1003200008BF4FF0010B19EB0B09ABFB027C48EB4C
:100330000608C01B06FB02CC0BFB03CC71EB0C01C7
:10034000C1E70B46024641464846BDE8F08B13B56F
:100350004FF000004FF00001AFF30080BDE81C40FB
:1003600070474FF0000200B5134694469646203978
:1003700022BFA0E80C50A0E80C50B1F12001BFF45E
:10038000F7AF090728BFA0E80C5048BF0CC05DF8C4
:1003900004EB890028BF40F8042B08BF704748BF12
:1003A00020F8022B11F0804F18BF00F8012B704786
:1003B000704770477047754600F02CF8AE46050050
:1003C0006946534620F00700854618B020B5FFF770
:1003D0003FFFBDE820404FF000064FF000074FF010
:1003E00000084FF0000B21F00701AC46ACE8C00953
:1003F000ACE8C009ACE8C009ACE8C0098D4670475C
:1004000010B50446AFF300802046BDE81040FFF76A
:100410000ABF000000487047100000200149182062
:10042000ABBEFEE726000200704700BFFEE7704744
:1004300000B587B0142102A8FFF793FF00BF00208A
:1004400001901F48006840F004001D4908600846FC
:10045000006800F00400019000BF00BF00BF002052
:1004600001900846006840F00100086008460068F6
:1004700000F00100019000BF00BF012251031148AC
:1004800000F01CF94FF4005002900120039000206E
:100490000490059002A90B4800F02CF84FF48070EE
:1004A0000290022003900020049003200590002079
:1004B000069002A9044800F01DF807B000BD000036
:1004C00030380240000802400000024070B5044687
:1004D00000F0FAF806462546681C10B1044800787A
:1004E000054400BF00F0F0F8801BA842FAD370BDAD
:1004F0000C000020F8B502460B4600250024002021
:100500000021C7E0012606FA01F51E6806EA050487
:10051000AC4274D11E7906F00306012E04D01E7978
:1005200006F00306022E13D190684F000326BE404A
:10053000B0434F00DE68BE403043906050680126F3
:100540008E40B0431E79C6F300168E403043506093
:100550001E7906F00306032E09D0D0684F0003264B
:10056000BE40B0434F009E68BE403043D0601E790D
:1005700006F00306022E13D1CF0802F1200656F82A
:1005800027004E07F70E0F26BE40B0434F07FF0E61
:100590001E69BE403043CF0802F1200646F827000E
:1005A00010684F000326BE40B0431E7906F00306D4
:1005B0004F00BE40304310605E6806F44036002EA7
:1005C00067D000BF00260096344E366846F4804659
:1005D000324F3E603E46366806F48046009600BFC5
:1005E00000BF2F4E8F0856F827008E07370F0F26B3
:1005F000BE40B0432B4EB24202D1002615E048E087
:10060000294EB24201D101260FE0284EB24201D15B
:1006100002260AE0264EB24201D1032605E0254E0D
:10062000B24201D1042600E007268F073F0FBE40EB
:1006300030431B4E8F0846F827001F4E3068A043FA
:100640005E6806F4801606B120431B4E3060361DEE
:100650003068A0435E6806F4001606B12043164ECB
:10066000361D3060144E361F3068A0435E6806F4B5
:10067000003606B12043104E361F3060361F3068FA
:10068000A0435E6806F4803606B120430A4E083E59
:100690003060491C1029FFF435AFF8BD44380240E2
:1006A00008380140000002400004024000080240F7
:1006B000000C024000100240083C01400AB1816178
:1006C00001E00B0483617047014800687047000037
:1006D00004000020034800680349097808440149E0
:1006E00008607047040000200C00002010B50D4881
:1006F000006840F400700B4908600846006840F448
:10070000806008600846006840F48070086003203C
:1007100000F070F80F2000F007F800F02BF8002030
:1007200010BD0000003C024070B504460E48007841
:100730004FF47A71B1FBF0F00C490968B1FBF0F5A8
:10074000284600F033FC08B1012070BD102C07D200
:1007500000222146501E00F00EF80548046001E01A
:100760000120F2E70020F0E70C000020000000204C
:100770000800002070472DE9F05F80460D461646C0
:10078000002700F0ADFC074639462A46334601F003
:100790000700C0F1070ABAF1040F02D94FF0040AAA
:1007A00001E0C0F1070AD14600F1040ABAF1070FCF
:1007B00002D24FF0000A01E0A0F1030AD4464FF044
:1007C000010A0AFA09FAAAF1010A0AEA020A0AFA6D
:1007D0000CFA4FF0010B0BFA0CFBABF1010B0BEA1F
:1007E000030B4AEA0B042146404600F081FCBDE8B9
:1007F000F09F000000BF00F00702064B19684FF69B
:10080000FF031940044B0B4343EA0221014B1960DB
:1008100000BF70470CED00E00000FA0570B504461B
:100820000D460CB9012070BD5848006800F0070063
:10083000A84209D255490D700846006800F007002B
:10084000A84201D00120EEE7207800F00200022843
:100850001DD1207800F00400042805D14C48006820
:1008600040F4E0504A490860207800F00800082869
:1008700005D14748006840F4604045490860444855
:10088000006820F0F000A168084341490860207822
:1008900000F00100A8B36068012807D13C4808387F
:1008A0000068C0F34040B8B90120BCE76068022886
:1008B00002D06068032807D1354808380068C0F3C3
:1008C000406048B90120AEE7314808380068C0F3FD
:1008D000400008B90120A6E72D48006820F0030079
:1008E000616808432A490860FFF7EEFE064609E002
:1008F000FFF7EAFE801B41F28831884202D90320CB
:1009000091E707E02248006800F00C006168B0EB56
:10091000810FEDD11D48006800F00700A84209D9F9
:100920001A490D700846006800F00700A84201D07F
:10093000012078E7207800F00400042807D114484B
:10094000006820F4E050E16808431149086020780D
:1009500000F00800082808D10D48006820F4604025
:10096000216940EAC1000A49086000F019F8084905
:100970000968C1F30311074A515CC8400649086081
:1009800006480068FFF7D0FE00204CE7003C02401C
:10099000083802406611000800000020080000200E
:1009A0002DE9F047002400250026A14625480068CF
:1009B00000F00C0020B1042805D008283AD105E049
:1009C000DFF8849039E0DFF8849036E01D48001F9E
:1009D000006800F03F041B48001F006800F480001E
:1009E00078B11A481749091F0968C1F38811A0FB9B
:1009F00001700146224600233846FFF73BFC0546BE
:100A00000EE011480F49091F0968C1F38811A0FBC6
:100A100001700146224600233846FFF72BFC0546AD
:100A20000848001F0068C0F30140401C4600B5FBA9
:100A3000F6F902E0DFF8109000BF00BF4846BDE8BD
:100A4000F0870000083802400024F40000127A0009
:100A500070B586B006460C46154646BB00BF002062
:100A600000902848006840F00100264908600846C8
:100A7000006800F00100009000BF00BF88150190E1
:100A8000022002900320049000200390059001A909
:100A90001D48FFF72FFD1B482838006820F0EC6048
:100AA00044EA0501084317492839086027E000BFD8
:100AB000002000901348006840F0040011490860CD
:100AC0000846006800F00400009000BF00BF481511
:100AD00001900220029003200490002003900590D2
:100AE00001A90A48FFF706FD06482838006820F0EB
:100AF000784044EAC501084302492839086006B035
:100B000070BD000030380240000002400008024082
:100B1000F8B504460CB90120F8BD207800F00100BA
:100B2000002874D0F948006800F00C0004280DD0AB
:100B3000F648006800F00C00082813D1F348001FA5
:100B4000006800F48000B0F5800F0BD1EF48083842
:100B50000068C0F34040002859D06068002856D192
:100B60000120D9E700BF6068B0F5803F08D1E748B1
:100B70000838006840F48030E449083908601EE015
:100B80006068B0F5A02F0DD1E0480838006840F447
:100B90008020DE49083908600846006840F480304B
:100BA00008600CE0D9480838006820F48030D74944
:100BB000083908600846006820F48020086000BFFB
:100BC000606890B1FFF780FD054606E0FFF77CFD09
:100BD000401B642801D903209EE7CC4808380068F0
:100BE000C0F340400028F1D011E0FFF76DFD05464D
:100BF00006E0FFF769FD401B642801D903208BE75D
:100C0000C24808380068C0F340400028F1D120787D
:100C100000F0020002285FD1BC48006800F00C0020
:100C200058B1BA48006800F00C0008281CD1B74839
:100C3000001F006800F48000B0B9B44808380068AC
:100C4000C0F3400020B1E068012801D0012063E733
:100C5000AE480838006820F0F800216940EAC10079
:100C6000AA490839086037E0E06800B30120A849C4
:100C70000860FFF729FD054606E0FFF725FD401B4C
:100C8000022801D9032047E7A04808380068C0F3CC
:100C900040000028F1D09D480838006820F0F80096
:100CA000216940EAC10099490839086014E0002030
:100CB00097490860FFF708FD054606E0FFF704FDC9
:100CC000401B022801D9032026E790480838006815
:100CD000C0F340000028F1D1207800F00800082877
:100CE0002CD16069A8B101208A490860FFF7ECFCAB
:100CF000054606E0FFF7E8FC401B022801D9032067
:100D00000AE782486C300068C0F340000028F1D048
:100D100014E000207F490860FFF7D6FC054606E096
:100D2000FFF7D2FC401B022801D90320F4E67748E4
:100D30006C300068C0F340000028F1D1207800F04A
:100D40000400042870D1002770483830006800F093
:100D5000805090B900BF002000906C483830006887
:100D600040F080506949383108600846006800F05A
:100D70008050009000BF00BF01276748006800F462
:100D80008070B0B96448006840F4807062490860BF
:100D9000FFF79AFC054606E0FFF796FC401B022889
:100DA00001D90320B8E65C48006800F48070002890
:100DB000F2D000BFA068012808D15448683000680C
:100DC00040F001005149683108601DE0A068052825
:100DD0000DD14E486830006840F004004B4968313E
:100DE00008600846006840F0010008600CE04748D1
:100DF0006830006820F00100444968310860084606
:100E0000006820F00400086000BFA068A8B1FFF7E8
:100E10005BFC054609E0FFF757FC401B41F28831B7
:100E2000884202D9032077E626E038486830006817
:100E3000C0F340000028EED013E0FFF745FC054664
:100E400008E0FFF741FC401B41F28831884201D99C
:100E5000032061E62D4868300068C0F34000002898
:100E6000EFD1012F07D129483830006820F0805099
:100E700026493831086000BFA069002845D02348C2
:100E8000006800F00C0008285DD0A069022845D158
:100E900000201F490866FFF717FC054606E0FFF72C
:100EA00013FC401B022801D9032035E617480838F7
:100EB0000068C0F340600028F1D1D4E9070108437D
:100EC000616A40EA81110122A06AC2EB500041EA46
:100ED00000412C20005D41EA00600C49091F0860B8
:100EE00001200B490866FFF7EFFB054606E0FFF718
:100EF000EBFB401B022801D903200DE6034808380C
:100F00000068C0F340600028F1D049E00838024092
:100F100000004742800E47420070004000202149F7
:100F20000866FFF7D1FB054606E0FFF7CDFB401B47
:100F3000022801D90320EFE51B480068C0F3406098
:100F40000028F2D12CE0A069012800D1E4E5164880
:100F5000001D0668A069012820D006F48001E06920
:100F600081421BD106F03F01206A814216D147F62B
:100F7000C0703040616AB0EB811F0FD106F4403180
:100F80000122A06AC2EB5000B1EB004F06D106F07F
:100F900070612C20005DB1EB006F01D00120BBE53A
:100FA0000020B9E5000047420038024070B5044611
:100FB0002546681EB0F1807F01D301200FE0681E36
:100FC0004FF0E02148610F214FF0FF3000F090F822
:100FD00000204FF0E021886107200861002070BDEB
:100FE00000BFFEE700BFFEE770477047704710B5CF
:100FF000FFF770FB10BD00002DE9F04192B00446F0
:10100000884615461E460027302106A8FFF7A9F995
:10101000142101A8FFF7A5F900BF0020009028487F
:10102000006840F08050264908600846006800F0DB
:101030008050009000BF00BF00BF002000902148FA
:10104000006820F4404040F400401E490860084613
:10105000006800F44040009000BF00BF01200690EF
:101060000004079002200C9041050D91CDF83880C6
:101070000F941095119606A8FFF74AFD07461FB179
:10108000012012B0BDE8F0810F20019002200290F3
:10109000002003904FF4805004900020059002211E
:1010A00001A8FFF7BBFB07460FB10120E9E74FF0AE
:1010B000C0624FF480010020FFF7CAFC0020E0E787
:1010C00040380240007000400348006840F470005F
:1010D000014908607047000088ED00E000BFFEE7AE
:1010E00002480068C0F30220704700000CED00E0E9
:1010F00010B5002804DB0A07130E054A135406E056
:101100000A07140E034A00F00F031B1FD45410BD2E
:1011100000E400E018ED00E0FFF7E8FA0423022203
:101120001921A820FFF768FFFFF782F912E00122DA
:1011300051030948FFF7C2FA4FF4FA70FFF7C6F9F6
:1011400000224FF400510448FFF7B8FA4FF4FA7048
:10115000FFF7BCF9EBE70000000802404FF04070D9
:10116000E1EE100A704700000000000000000102DC
:101170000304060708090000000001020304000040
:10118000A01100080000002010000000D00100089D
:10119000B01100081000002060060000EC010008FB
:1011A0000024F40000000000100000000100000016
:040000050800019559
:00000001FF
