:020000040800F2
:10000000A0300020350200085D2B00087323000893
:10001000592B000821040008893400080000000062
:10002000000000000000000000000000D92D0008C2
:1000300079050008000000005F2B0008DB2D000898
:100040004F0200084F0200084F0200084F0200084C
:100050004F0200084F0200084F0200084F0200083C
:100060004F0200084F0200084F0200084F0200082C
:100070004F0200084F0200084F0200084F0200081C
:100080004F0200084F0200084F0200080000000065
:100090000000000000000000000000004F02000807
:1000A0004F0200081D2F00084F0200084F020008F1
:1000B0004F0200084F0200084F0200084F020008DC
:1000C0004F0200084F0200084F0200084F020008CC
:1000D0004F020008793400084F02000800000000B9
:1000E0004F0200084F0200084F0200080000000005
:1000F0000000000000000000000000004F020008A7
:10010000000000004F0200084F0200084F020008E4
:1001100000000000000000000000000000000000DF
:100120004F0200084F0200084F0200082504000893
:100130004F02000800000000000000000000000066
:100140000000000000000000000000004F02000856
:100150004F0200084F0200084F0200084F0200083B
:100160004F0200084F0200080000000000000000DD
:10017000000000000000000000000000000000007F
:10018000000000004F020008000000000000000016
:100190004F02000800F002F800F03CF80AA090E8D6
:1001A000000C82448344AAF10107DA4501D100F032
:1001B00031F8AFF2090EBAE80F0013F0010F18BFC3
:1001C000FB1A43F001031847BC4B0000DC4B000056
:1001D000103A24BF78C878C1FAD8520724BF30C873
:1001E00030C144BF04680C60704700000023002445
:1001F00000250026103A28BF78C1FBD8520728BF37
:1002000030C148BF0B6070471FB503F04FFA1FBDE8
:1002100010B510BD00F0D1F81146FFF7F5FF03F05F
:1002200081F900F0EFF803B4FFF7F2FF03BC03F02D
:1002300049F900000948804709480047FEE7FEE702
:10024000FEE7FEE7FEE7FEE7FEE7FEE7FEE7FEE786
:1002500004480549054A064B70470000A92E0008CE
:1002600095010008A02A0020A0300020A02C00202A
:10027000A02C0020704753EA020C00F069802DE9A1
:10028000F04B4FF00006002B1FBFB3FA83F503FAC3
:1002900005F424FA05F65E4012BF1643B2FA82F561
:1002A00002FA05F4C5F120051EBF22FA05FC44EA56
:1002B0000C04203556EA044C4FEA144418BF641C61
:1002C0004FF000084FF00009904271EB030C39D356
:1002D000002919BFB1FA81F701FA07F6B0FA80F7E1
:1002E00000FA07F6C7F120071EBF20FA07FC46EA0E
:1002F0000C062037B6FBF4FCA7EB0507103F07F010
:100300001F0BCBF120060CFA0BFB2CFA06F644BFB0
:10031000B3460026202FA4BF5E464FF0000B5BEAD9
:10032000060C08BF4FF0010B19EB0B09ABFB027C6D
:1003300048EB0608C01B06FB02CC0BFB03CC71EBA1
:100340000C01C1E70B46024641464846BDE8F08B2A
:1003500013B54FF000004FF00001AFF30080BDE88F
:100360001C4070474FF0000200B513469446964675
:10037000203922BFA0E80C50A0E80C50B1F12001B8
:10038000BFF4F7AF090728BFA0E80C5048BF0CC066
:100390005DF804EB890028BF40F8042B08BF7047C4
:1003A00048BF20F8022B11F0804F18BF00F8012B36
:1003B00070477047704770477047754600F02CF8DB
:1003C000AE4605006946534620F00700854618B042
:1003D00020B5FFF73DFFBDE820404FF000064FF08D
:1003E00000074FF000084FF0000B21F00701AC466A
:1003F000ACE8C009ACE8C009ACE8C009ACE8C00989
:100400008D46704710B50446AFF300802046BDE826
:100410001040FFF708BF000000487047402A002046
:1004200000BFFEE710B5024800F012F910BD000051
:10043000780000200146087810381823B0FBF3F24A
:100440000848805CC865032A05D908686FF309006D
:10045000001D886503E008686FF309008865886DF2
:10046000704700007C4D0008014600208A6A8B69B5
:10047000CBB932B1012A0DD0022A03D0032A10D100
:100480000EE000BFCB6A03F08073B3F1807F00D130
:10049000012007E0CB6AB3F1C07F00D1012001E069
:1004A00000E000BF34E08B69B3F5005F1AD132B1D0
:1004B000012A07D0022A03D0032A11D10AE000BF83
:1004C00001200EE0CB6A03F08073B3F1807F00D18E
:1004D000012006E0CB6AB3F1C07F00D1012000E02B
:1004E00000BF15E032B1012A05D0022A04D0032A48
:1004F0000CD103E000BF00BF012008E0CB6A03F08D
:100500008073B3F1807F00D1012000E000BF00BF05
:100510007047000008B500BF002000900A4800683E
:1005200040F48000084908600846006800F4800034
:10053000009000BF00BF002205213B2000F0D1FB4E
:100540003B2000F0BAFB08BD3038024030B50468EB
:10055000246824F4802405682C600468636084683F
:10056000402C04D10468A2600468E16003E00468E0
:10057000A1600468E26030BD704770B50446A56DA7
:1005800000F044FB064694F83500022808D080208D
:10059000606500BF002084F8340000BF012070BDFA
:1005A0002068006820F01600216808602068406913
:1005B00020F0800021684861206C08B9A06C28B147
:1005C0002068006820F00800216808602068006842
:1005D00020F001002168086010E000F017FB801B8C
:1005E00005280BD920206065032084F8350000BF62
:1005F000002084F8340000BF0320D0E720680068A2
:1006000000F001000028E8D194F85C103F208840F9
:10061000A860012084F8350000BF002084F8340071
:1006200000BF00BFBBE7014691F83500022803D0A8
:100630008020486501207047052081F83500086852
:10064000006820F001000A6810600020F3E7000055
:10065000F8B50446002000908C4800684FF416510D
:10066000B0FBF1F7A56D2E6894F85C100820884067
:10067000304098B12068006800F0040070B1206834
:10068000006820F004002168086094F85C100820DD
:100690008840A860606D40F00100606594F85C10CF
:1006A00001208840304068B12068406900F0800037
:1006B00040B194F85C1001208840A860606D40F063
:1006C0000200606594F85C1004208840304068B1F6
:1006D0002068006800F0020040B194F85C1004202B
:1006E0008840A860606D40F00400606594F85C107C
:1006F00010208840304078B32068006800F008007F
:1007000050B394F85C1010208840A86020680068FE
:1007100000F4802080B12068006800F4002028B92F
:10072000206CC8B12046216C884715E0A06C98B1B8
:100730002046A16C88470FE02068006800F48070B4
:1007400028B92068006820F0080021680860206C43
:1007500010B12046216C884794F85C102020884016
:100760003040002865D02068006800F010000028A4
:100770005FD094F85C1020208840A86094F8350081
:10078000052828D12068006820F01600216808603C
:100790002068406920F0800021684861206C08B919
:1007A000A06C28B12068006820F00800216808606B
:1007B00094F85C103F208840A860012084F8350040
:1007C00000BF002084F8340000BF206D10B1204627
:1007D000216D8847F8BD2068006800F4802080B152
:1007E0002068006800F4002028B9606C10B1204631
:1007F000616C88471DE0E06BD8B12046E16B88470B
:1008000017E02068006800F4807068B9206800680C
:1008100020F0100021680860012084F8350000BF36
:10082000002084F8340000BFE06B10B12046E16B7B
:100830008847606D38B3606D00F00100F0B10520AD
:1008400084F835002068006820F001002168086005
:1008500000BF0098401C0090B84200D905E0206815
:10086000006800F001000028F3D100BF012084F8E7
:10087000350000BF002084F8340000BFE06C10B1E8
:100880002046E16C884700BFA4E70000000000207C
:100890002DE9F0410446002500F0B8F9074614B9E7
:1008A0000120BDE8F081606A00B100BF022084F839
:1008B000350000BF002084F8340000BF20680068C5
:1008C00020F00100216808600AE000F09FF9C01BD9
:1008D000052805D920206065032084F83500E0E76D
:1008E0002068006800F001000028EED1206805684B
:1008F00021480540D4E901010843E1680843216922
:10090000084361690843A1690843E1690843216A12
:1009100008430543606A042803D1D4E90B01084366
:100920000543206805602068456925F00705606A71
:100930000543606A04280DD1A06A0543E06A48B106
:100940002046FFF791FD28B140206065012084F822
:100950003500A6E7206845612046FFF76BFD064697
:1009600094F85C103F208840B06000206065012052
:1009700084F83500002094E73F8010F02DE9F0471F
:1009800004460D4616461F464FF00008D4F858900E
:1009900000BF94F83400012802D10220BDE8F0879E
:1009A000012084F8340000BF94F83500012825D1D7
:1009B000022084F83500002060653B463246294617
:1009C0002046FFF7C3FD94F85C103F208840C9F82B
:1009D00008002068006840F0160021680860206C5C
:1009E00028B12068006840F008002168086020688D
:1009F000006840F001002168086006E000BF0020A8
:100A000084F8340000BF4FF002084046C6E70000FB
:100A100070B5044600F0FAF806462546681C10B189
:100A200004480078054400BF00F0F0F8801BA8429D
:100A3000FAD370BD1C000020F8B502460B46002515
:100A4000002400200021C7E0012606FA01F51E68F7
:100A500006EA0504AC4274D11E7906F00306012EA5
:100A600004D01E7906F00306022E13D190684F00C1
:100A70000326BE40B0434F00DE68BE403043906066
:100A8000506801268E40B0431E79C6F300168E4092
:100A9000304350601E7906F00306032E09D0D0685B
:100AA0004F000326BE40B0434F009E68BE40304317
:100AB000D0601E7906F00306022E13D1CF0802F192
:100AC000200656F827004E07F70E0F26BE40B0430B
:100AD0004F07FF0E1E69BE403043CF0802F12006CB
:100AE00046F8270010684F000326BE40B0431E7929
:100AF00006F003064F00BE40304310605E6806F407
:100B00004036002E67D000BF00260096344E36686F
:100B100046F48046324F3E603E46366806F48046D4
:100B2000009600BF00BF2F4E8F0856F827008E0793
:100B3000370F0F26BE40B0432B4EB24202D10026E3
:100B400015E048E0294EB24201D101260FE0284EBF
:100B5000B24201D102260AE0264EB24201D103265A
:100B600005E0254EB24201D1042600E007268F079A
:100B70003F0FBE4030431B4E8F0846F827001F4EE4
:100B80003068A0435E6806F4801606B120431B4E11
:100B90003060361D3068A0435E6806F4001606B16A
:100BA0002043164E361D3060144E361F3068A04369
:100BB0005E6806F4003606B12043104E361F3060E2
:100BC000361F3068A0435E6806F4803606B12043C5
:100BD0000A4E083E3060491C1029FFF435AFF8BDBD
:100BE000443802400838014000000240000402403E
:100BF00000080240000C024000100240083C014086
:100C00000AB1816101E00B0483617047014800680B
:100C10007047000014000020034800680349097869
:100C20000844014908607047140000201C0000209F
:100C300010B50D48006840F400700B490860084684
:100C4000006840F4806008600846006840F48070E6
:100C50000860032000F084F80F2000F007F800F08F
:100C60002BF8002010BD0000003C024070B5044687
:100C70000E4800784FF47A71B1FBF0F00C49096826
:100C8000B1FBF0F5284600F083FF08B1012070BDEC
:100C9000102C07D200222146501E00F022F80548F1
:100CA000046001E00120F2E70020F0E71C000020D2
:100CB0000000002018000020704701460846002868
:100CC0000DDB00BF00BF00F01F0301229A40430963
:100CD0009B0003F1E023C3F8002100BF00BF00BF69
:100CE00070472DE9F05F80460D461646002702F05A
:100CF000CDFB074639462A46334601F00700C0F1CE
:100D0000070ABAF1040F02D94FF0040A01E0C0F15A
:100D1000070AD14600F1040ABAF1070F02D24FF0D8
:100D2000000A01E0A0F1030AD4464FF0010A0AFAD2
:100D300009FAAAF1010A0AEA020A0AFA0CFA4FF0C1
:100D4000010B0BFA0CFBABF1010B0BEA030B4AEAAC
:100D50000B042146404602F0A1FBBDE8F09F0000D5
:100D600000BF00F00702064B19684FF6FF03194059
:100D7000044B0B4343EA0221014B196000BF70474B
:100D80000CED00E00000FA0570B504460D460CB904
:100D9000012070BD5848006800F00700A84209D241
:100DA00055490D700846006800F00700A84201D0C0
:100DB0000120EEE7207800F0020002281DD1207803
:100DC00000F00400042805D14C48006840F4E050CD
:100DD0004A490860207800F00800082805D14748F3
:100DE000006840F46040454908604448006820F0CD
:100DF000F000A168084341490860207800F0010034
:100E0000A8B36068012807D13C4808380068C0F3DF
:100E10004040B8B90120BCE76068022802D0606891
:100E2000032807D1354808380068C0F3406048B946
:100E30000120AEE7314808380068C0F3400008B927
:100E40000120A6E72D48006820F0030061680843F0
:100E50002A490860FFF7DAFE064609E0FFF7D6FEEA
:100E6000801B41F28831884202D9032091E707E0D4
:100E70002248006800F00C006168B0EB810FEDD1F2
:100E80001D48006800F00700A84209D91A490D70F2
:100E90000846006800F00700A84201D0012078E76A
:100EA000207800F00400042807D11448006820F4DA
:100EB000E050E168084311490860207800F008001C
:100EC000082808D10D48006820F46040216940EAF4
:100ED000C1000A49086000F03FF808490968C1F3F9
:100EE0000311074A515CC84006490860064800687B
:100EF000FFF7BCFE00204CE7003C024008380240EF
:100F0000B6360008000000201800002001480068E4
:100F1000704700000000002000B5FFF7F7FF04490C
:100F20000968C1F38221034A515CC84000BD00003A
:100F300008380240C636000800B5FFF7E7FF04494D
:100F40000968C1F34231034A515CC84000BD00004A
:100F500008380240C63600082DE9F0470024002575
:100F60000026A1462548006800F00C0020B10428A6
:100F700005D008283AD105E0DFF8849039E0DFF8A1
:100F8000849036E01D48001F006800F03F041B48B5
:100F9000001F006800F4800078B11A481749091F43
:100FA0000968C1F38811A0FB0170014622460023A5
:100FB0003846FFF760F905460EE011480F49091F52
:100FC0000968C1F38811A0FB017001462246002385
:100FD0003846FFF750F905460848001F0068C0F37F
:100FE0000140401C4600B5FBF6F902E0DFF8109026
:100FF00000BF00BF4846BDE8F08700000838024047
:101000000024F40040787D0170B586B006460C4699
:10101000154646BB00BF002000902848006840F0FD
:101020000100264908600846006800F001000090B1
:1010300000BF00BF88150190022002900320049099
:1010400000200390059001A91D48FFF7F5FC1B48FF
:101050002838006820F0EC6044EA0501084317498D
:101060002839086027E000BF00200090134800687E
:1010700040F00400114908600846006800F00400D0
:10108000009000BF00BF481501900220029003208D
:10109000049000200390059001A90A48FFF7CCFCBA
:1010A00006482838006820F0784044EAC501084323
:1010B00002492839086006B070BD0000303802408F
:1010C0000000024000080240F8B504460CB90120B7
:1010D000F8BD207800F00100002874D0F9480068BD
:1010E00000F00C0004280DD0F648006800F00C0059
:1010F000082813D1F348001F006800F48000B0F501
:10110000800F0BD1EF4808380068C0F3404000283A
:1011100059D06068002856D10120D9E700BF606827
:10112000B0F5803F08D1E7480838006840F48030C7
:10113000E449083908601EE06068B0F5A02F0DD1C1
:10114000E0480838006840F48020DE49083908602B
:101150000846006840F4803008600CE0D948083840
:10116000006820F48030D7490839086008460068D4
:1011700020F48020086000BF606890B1FFF746FD52
:10118000054606E0FFF742FD401B642801D9032015
:101190009EE7CC4808380068C0F340400028F1D0F2
:1011A00011E0FFF733FD054606E0FFF72FFD401B7A
:1011B000642801D903208BE7C24808380068C0F3CF
:1011C00040400028F1D1207800F0020002285FD1D1
:1011D000BC48006800F00C0058B1BA48006800F044
:1011E0000C0008281CD1B748001F006800F48000DC
:1011F000B0B9B44808380068C0F3400020B1E068D6
:10120000012801D0012063E7AE480838006820F0CB
:10121000F800216940EAC100AA490839086037E0AE
:10122000E06800B30120A8490860FFF7EFFC05461D
:1012300006E0FFF7EBFC401B022801D9032047E73B
:10124000A04808380068C0F340000028F1D09D484D
:101250000838006820F0F800216940EAC100994987
:101260000839086014E0002097490860FFF7CEFCB9
:10127000054606E0FFF7CAFC401B022801D90320FF
:1012800026E7904808380068C0F340000028F1D1F4
:10129000207800F0080008282CD16069A8B101204E
:1012A0008A490860FFF7B2FC054606E0FFF7AEFC8E
:1012B000401B022801D903200AE782486C300068ED
:1012C000C0F340000028F1D014E000207F490860FE
:1012D000FFF79CFC054606E0FFF798FC401B022840
:1012E00001D90320F4E677486C300068C0F3400071
:1012F0000028F1D1207800F00400042870D10027E4
:1013000070483830006800F0805090B900BF00206D
:1013100000906C483830006840F08050694938319E
:1013200008600846006800F08050009000BF00BFD1
:1013300001276748006800F48070B0B9644800680D
:1013400040F4807062490860FFF760FC054606E0E3
:10135000FFF75CFC401B022801D90320B8E65C487B
:10136000006800F480700028F2D000BFA068012857
:1013700008D154486830006840F001005149683194
:1013800008601DE0A06805280DD14E48683000684F
:1013900040F004004B49683108600846006840F09E
:1013A000010008600CE047486830006820F0010048
:1013B0004449683108600846006820F0040008606D
:1013C00000BFA068A8B1FFF721FC054609E0FFF7C0
:1013D0001DFC401B41F28831884202D9032077E688
:1013E00026E0384868300068C0F340000028EED09E
:1013F00013E0FFF70BFC054608E0FFF707FC401B76
:1014000041F28831884201D9032061E62D486830D5
:101410000068C0F340000028EFD1012F07D1294810
:101420003830006820F0805026493831086000BF0D
:10143000A069002845D02348006800F00C00082867
:101440005DD0A069022845D100201F490866FFF73A
:10145000DDFB054606E0FFF7D9FB401B022801D95A
:10146000032035E6174808380068C0F340600028BC
:10147000F1D1D4E907010843616A40EA81110122F0
:10148000A06AC2EB500041EA00412C20005D41EA15
:1014900000600C49091F086001200B490866FFF72E
:1014A000B5FB054606E0FFF7B1FB401B022801D95A
:1014B00003200DE6034808380068C0F340600028A8
:1014C000F1D049E00838024000004742800E474210
:1014D00000700040002021490866FFF797FB054691
:1014E00006E0FFF793FB401B022801D90320EFE53C
:1014F0001B480068C0F340600028F2D12CE0A069CE
:10150000012800D1E4E51648001D0668A0690128FD
:1015100020D006F48001E06981421BD106F03F0132
:10152000206A814216D147F6C0703040616AB0EB44
:10153000811F0FD106F440310122A06AC2EB500096
:10154000B1EB004F06D106F070612C20005DB1EBCD
:10155000006F01D00120BBE50020B9E50000474243
:1015600000380240704710B504460CB9012010BD88
:10157000606A38B96068B0F5827F00D105E000216B
:10158000E16102E0002121616161A06AB0F5005FC4
:1015900000D100BF94F8510028B9002084F8500011
:1015A000204600F04FF8022084F8510020680068BF
:1015B00020F0400021680860A08800F48270218932
:1015C00001F404410843A18901F400610843217C2E
:1015D00001F002010843217D01F001010843218B44
:1015E00001F400710843217F01F0380108432021F4
:1015F000095D01F080010843218D01F40051084389
:10160000216808600421A06901EA104094F82410C0
:1016100001F01001084321684860A06AB0F5005F3E
:1016200003D1A08D80B2216808612068C06920F4D0
:1016300000602168C86100206065012084F85100C5
:10164000002094E710B586B0044600BF00BF00201C
:1016500000903C48006840F480503A4908600846D1
:10166000006800F48050009000BF00BF00BF364902
:101670002068884264D100BF00BF0020009031483C
:101680001438006840F002002E49143908600846FA
:10169000006800F00200009000BF00BF00BF00BF64
:1016A00000BF002000900846006840F0020008607B
:1016B0000846006800F00200009000BF00BF00BFB5
:1016C00000BF00BF002000900846006840F0020004
:1016D00008600846006800F00200009000BF00BFEC
:1016E00000BF2020019002200290012003900320DF
:1016F00004900520059001A91448FFF79DF980206A
:10170000019001A91148FFF797F9114811490860A4
:101710004FF0C060486040210E4881600021C160E8
:101720004FF480610161002141618161C161016209
:101730004162FFF7ADF800BF0648A064846300BFB4
:1017400006B010BD443802400030014000000240A5
:1017500058640240780000202DE9F04F85B004461F
:10176000884691461D460E9E00200390012002905F
:101770000020019000BF94F85000012803D10220FE
:1017800005B0BDE8F08F012084F8500000BFFFF7DE
:101790003DFA074694F851B060680490AA46BBF140
:1017A000010F0BD00498B0F5827F04D1A06810B966
:1017B000BBF1040F02D00220019052E1B8F1000FFA
:1017C00003D0B9F1000F00D015B90120019048E114
:1017D00094F85100042802D0052084F8510000201C
:1017E0006065C4F83890E587A587C4F83080E58641
:1017F000A58620646064A06AB0F5005F0DD100BFCB
:101800002068006820F400502168086020680068A3
:1018100040F400502168086000BF2068006800F0B4
:101820004000402805D02068006840F04000216852
:101830000860E068B0F5006F65D1606810B1BAF17A
:10184000010F15D1206B00882168C860206B801CB7
:101850002063E08E401EE086E08E48B9A06AB0F5B5
:10186000005F05D12068006840F48050216808605E
:1018700042E02068806800F0020002281CD1E08E5F
:10188000D0B10298012817D1206B00882168C86068
:10189000206B801C2063E08E401EE08600200290BA
:1018A000E08E48B9A06AB0F5005F05D120680068F5
:1018B00040F48050216808602068806800F00100D2
:1018C00068B1E08F58B12068C068A16B0880A06B38
:1018D000801CA063E08F401EE08701200290FFF78C
:1018E00095F9C01BB04207D3701C28B103200190AA
:1018F000012084F85100B4E0E08E0028B9D1E08FD7
:101900000028B6D165E0606810B1BAF1010F15D1B9
:10191000206B007821680873206B401C2063E08EE8
:10192000401EE086E08E48B9A06AB0F5005F05D1A0
:101930002068006840F480502168086043E0206817
:10194000806800F0020002281CD1E08ED0B102981D
:10195000012817D1206B007821680873206B401C88
:101960002063E08E401EE08600200290E08E48B9A1
:10197000A06AB0F5005F05D12068006840F480508F
:10198000216808602068806800F0010068B1E08F7D
:1019900058B12068C068A16B0870A06B401CA063A0
:1019A000E08F401EE08701200290FFF72FF9C01B57
:1019B000B04201D3701C00B92EB903200190012060
:1019C00084F851004DE0E08E0028B8D1E08F002867
:1019D000B5D1A06AB0F5005F12D13346012211469D
:1019E0002046009701F08CF930B1606D40F00200A4
:1019F00060650320019034E02068C068039000BF58
:101A00002068806800F01000102809D1606D40F057
:101A1000020060654FF6EF70216888600120019038
:101A20003A463146204601F027F920B101200190C5
:101A30002020606515E0A06850B900BF002000902C
:101A40002068C068009020688068009000BF00BFD8
:101A5000606D10B10120019002E0012084F8510076
:101A600000BF00BF002084F8500000BF019887E647
:101A70002DE9F04104460E461546002700BF94F8B4
:101A80005000012802D10220BDE8F081012084F835
:101A9000500000BF94F85100012801D0022767E0F0
:101AA00006B10DB9012763E0032084F8510000203E
:101AB00060652663A586E586A06360642064A087D0
:101AC000E087A068B0F5004F0BD12068006820F0D7
:101AD0004000216808602068006840F48040216868
:101AE0000860A06AB0F5005F0DD100BF20680068F3
:101AF00020F40050216808602068006840F400501D
:101B00002168086000BF1E48A16C08641D48A16CD4
:101B1000C8631D48A16CC8640020A16C0865E38EF1
:101B2000D4F800C00CF10C02216BA06CFEF726FF6C
:101B300028B1606D40F010006065012718E0206852
:101B4000006800F04000402805D02068006840F0A0
:101B50004000216808602068406840F0200021684B
:101B600048602068406840F002002168486000BF7B
:101B700000BF002084F8500000BF384684E7000012
:101B8000E92B0008F72B0008C12B000870477047AD
:101B900070B504462546681EB0F1807F01D3012050
:101BA0000FE0681E4FF0E02148610F214FF0FF3039
:101BB00001F074FC00204FF0E021886107200861EB
:101BC000002070BD7047704710B504460CB9012065
:101BD00010BD94F83D0028B9002084F83C00204650
:101BE00000F026F8022084F83D00211D206801F055
:101BF000B5F9012084F8460000BF84F83E000121B9
:101C00003F200155402001554120015500BF00BF34
:101C1000012084F84200432001554420015545200D
:101C2000015500BF012084F83D000020D0E70000EE
:101C300038B504460C492068884214D100BF002002
:101C400000900A48006840F40030084908600846DF
:101C5000006800F40030009000BF00BF052211466C
:101C60001920FFF73EF838BD0044014044380240D7
:101C7000014691F83D00012801D001207047022063
:101C800081F83D000868C06840F001000B68D8602A
:101C9000164B0868984213D00868B0F1804F0FD0F7
:101CA000134B086898420BD0124B0868984207D033
:101CB000114B0868984203D0104B086898420CD129
:101CC0000868806800F00702062A0CD008680068DF
:101CD00040F001000B68186005E00868006840F0FB
:101CE00001000B6818600020C8E7000000000140F8
:101CF0000004004000080040000C0040004001408B
:101D0000704770B504462068C5682068066906F00B
:101D10000200022819D105F00200022815D1401F47
:101D200021680861012020772068806900F00300A5
:101D300018B12046FFF7E4FF05E0204600F097F8D1
:101D4000204600F095F80020207706F004000428D3
:101D500019D105F00400042815D1C0432168086199
:101D6000022020772068806900F4407018B1204676
:101D7000FFF7C6FF05E0204600F079F8204600F0A6
:101D800077F80020207706F00800082819D105F020
:101D90000800082815D1C043216808610420207775
:101DA0002068C06900F0030018B12046FFF7A8FFC3
:101DB00005E0204600F05BF8204600F059F80020CE
:101DC000207706F01000102819D105F01000102817
:101DD00015D1C04321680861082020772068C069B8
:101DE00000F4407018B12046FFF78AFF05E0204656
:101DF00000F03DF8204600F03BF80020207706F088
:101E0000010048B105F0010030B16FF00100216818
:101E10000861204600F02DF806F08000802809D1E6
:101E200005F08000802805D1C04321680861204664
:101E3000FFF7C8FE06F04000402809D105F0400039
:101E4000402805D1C04321680861204600F012F8FF
:101E500006F02000202809D105F02000202805D117
:101E6000C043216808612046FFF7ADFE70BD704792
:101E70007047704770477047704700002DE9F84F72
:101E80000446206805682068C668206847694FF0E6
:101E90000009CA4605F00F09B9F1000F0AD105F093
:101EA000200038B106F0200020B1204601F000F9F2
:101EB000BDE8F88FB9F1000F7CD007F0010018B928
:101EC00006F49070002875D005F0010030B106F4DA
:101ED000807018B1606C40F00100606405F004008F
:101EE00030B107F0010018B1606C40F0020060648E
:101EF00005F0020030B107F0010018B1606C40F04D
:101F00000400606405F0080048B106F0200010B934
:101F100007F0010018B1606C40F008006064606C6C
:101F2000002846D005F0200028B106F0200010B1AE
:101F3000204601F0BDF820684069C0F3801A606C4B
:101F400000F0080010B9BAF1000F2DD0204601F0C2
:101F500069F82068406900F04000402820D100BFA7
:101F600000BF2168143151E8001F21F040002168B2
:101F7000143141E80002002AF3D100BFE06B50B1F8
:101F80007748E16B0865E06BFEF74DFB88B1E06BCD
:101F9000016D88470DE02046FFF76EFF09E009E07C
:101FA0002046FFF769FF04E02046FFF765FF0020A9
:101FB00060647DE7206B012878D105F010000028CF
:101FC00074D006F010000028FAD000BF0020009066
:101FD00020680068009020684068009000BF00BF43
:101FE0002068406900F04000402860D1E06B006844
:101FF00040681FFA80F8B8F1000F56D0A08D404518
:1020000053DDA4F82E80E06BC069B0F5807F43D02B
:1020100000BF00BF21680C3151E8001F21F480701F
:1020200021680C3141E80002002AF3D100BF00BF53
:1020300000BF2168143151E8001F21F00100216820
:10204000143141E80002002AF3D100BF00BF00BFF5
:102050002168143151E8001F21F04000216814313B
:1020600041E80002002AF3D100BF202084F842009A
:102070000020206300BF00BF21680C3151E8001F21
:1020800021F0100021680C3141E80002002AF3D150
:1020900000BFE06BFEF771FA02206063A08DE28D55
:1020A000801A81B22046FFF7E6FE01E742E0A08DEC
:1020B000E18D401A1FFA80F8E08DD0B3B8F1000F1F
:1020C00037D000BF00BF21680C3151E8001F21F458
:1020D000907021680C3141E80002002AF3D100BF62
:1020E00000BF00BF2168143151E8001F21F001003A
:1020F0002168143141E80002002AF3D100BF2020FA
:1021000084F842000020206300BF00BF21680C312A
:1021100051E8001F21F0100021680C3141E8000255
:10212000002AF3D100BF0220606341462046FFF73A
:10213000A2FEBDE605F0800030B106F0800018B1C7
:10214000204601F069F9B3E605F0400030B106F031
:10215000400018B1204600F09BFFA9E600BFA7E6AB
:102160001130000810B504460CB9012010BDA0695B
:1021700000B100E000BF94F8410028B9002084F8C5
:102180004000204600F02AF8242084F8410020680E
:10219000C06820F400502168C860204601F006F8AD
:1021A0002068006920F49040216808612068406937
:1021B00020F02A00216848612068C06840F400507F
:1021C0002168C86000206064202084F8410084F801
:1021D00042000020606300BFC8E7000010B586B071
:1021E00004462E492068884255D100BF00BF002018
:1021F00000902B48006840F010002949086008460C
:10220000006800F01000009000BF00BF00BF00BFDA
:1022100000BF0020009022481438006840F0010000
:102220001F49143908600846006800F0010000905A
:1022300000BF00BF00BF00BF00BF002000900846E5
:10224000006840F0010008600846006800F00100E6
:10225000009000BF00BF00BF48150190022002900F
:1022600001200390022004900720059001A90D4849
:10227000FEF7E2FB4FF4806001900720059001A972
:102280000848FEF7D9FB2520FEF717FD032211466B
:102290002520FEF726FD06B010BD0000001001400D
:1022A000443802400000024070B504460D46164610
:1022B00094F8420020280BD105B10EB9012070BD61
:1022C0000020206332462946204601F085F8F6E7D3
:1022D0000220F4E710B504462049206888423BD12B
:1022E0001F48008800F4004088BB1D48008800F4A7
:1022F000804070B11B4800780A2803D0002018499C
:10230000088024E01648008840F400401449088002
:102310001DE0144800780D2806D11148008840F4CB
:1023200080400F49088012E00E4800780C49098867
:10233000C1F30D010C4A505409480088401C08495B
:10234000088008460088C72801DD00200880012297
:1023500004490648FFF7A8FF10BD00000010014027
:10236000100000201200002030290020F829002051
:10237000704700BFFEE70000F8B50546002000905A
:1023800028128DF80000E8B28DF8010000240DE05D
:102390009DF800001D4901F814009DF8010001217D
:1023A00001EB4401194A5054601C84B2B4F5A05F9B
:1023B000EEDB17484088401E83B215480088401E57
:1023C00082B20021084600F0C7F900BF00220421B4
:1023D0001048FEF715FC00BF00BF012208210D4880
:1023E000FEF70EFC00BF002606E04FF42051074820
:1023F00001F02EF9701C86B2042EF6DB00BF01221C
:1024000004210448FEF7FCFB00BFF8BDE6000020F5
:10241000D80000200000024070B504460D46294651
:10242000204600F08FF90248008800F06DFB70BD77
:102430000400002000B587B0142102A8FDF792FF28
:1024400000BF00BF002001902448006840F0020057
:10245000224908600846006800F00200019000BFB1
:1024600000BF00BF00BF00BF002001900846006809
:1024700040F0020008600846006800F00200019089
:1024800000BF00BF00BF00BF00BF00200190084692
:10249000006840F0020008600846006800F0020092
:1024A000019000BF00BF00BF0420029001200390F4
:1024B000002004900320059002A90948FEF7BCFA09
:1024C0000820029002A90648FEF7B6FA10200290F2
:1024D00002A90348FEF7B0FA07B000BD3038024049
:1024E0000000024010B5FFF7A5FF00F013F911201E
:1024F00000F09CFA7820FEF78BFAB12000F096FAF3
:10250000012000F075FA2C2000F072FA2D2000F066
:102510006FFAB22000F08AFA012000F069FA2C204C
:1025200000F066FA2D2000F063FAB32000F07EFA86
:10253000012000F05DFA2C2000F05AFA2D2000F066
:1025400057FA012000F054FA2C2000F051FA2D2007
:1025500000F04EFAB42000F069FA072000F048FAC3
:10256000C02000F063FAA22000F042FA022000F03E
:102570003FFA842000F03CFAC12000F057FAC52051
:1025800000F036FAC22000F051FA0A2000F030FACA
:10259000002000F02DFAC32000F048FA8A2000F055
:1025A00027FA2A2000F024FAC42000F03FFA8A20FB
:1025B00000F01EFAEE2000F01BFAC52000F036FAFB
:1025C0000E2000F015FA362000F030FAC02000F09E
:1025D0000FFAE02000F02AFA0F2000F009FA1A2082
:1025E00000F006FA0F2000F003FA182000F000FABD
:1025F0002F2000F0FDF9282000F0FAF9202000F04B
:10260000F7F9222000F0F4F91F2000F0F1F91B2067
:1026100000F0EEF9232000F0EBF9372000F0E8F9A4
:10262000002000F0E5F9072000F0E2F9022000F0B8
:10263000DFF9102000F0DCF9E12000F0F7F90F20BD
:1026400000F0D6F91B2000F0D3F90F2000F0D0F9EC
:10265000172000F0CDF9332000F0CAF92C2000F04B
:10266000C7F9292000F0C4F92E2000F0C1F930206C
:1026700000F0BEF9302000F0BBF9392000F0B8F9C5
:102680003F2000F0B5F9002000F0B2F9072000F07B
:10269000AFF9032000F0ACF9102000F0A9F92A20CE
:1026A00000F0C4F9002000F0A3F9002000F0A0F928
:1026B000002000F09DF97F2000F09AF92B2000F017
:1026C000B5F9002000F094F9002000F091F9002005
:1026D00000F08EF99F2000F08BF9F02000F0A6F9B1
:1026E000012000F085F9F62000F0A0F9002000F0AC
:1026F0007FF93A2000F09AF9052000F079F92920B5
:1027000000F094F9002000F0C1F94FF47840FFF791
:1027100033FE10BD10B500BF002210210848FEF79F
:102720006FFA00BF6420FEF773F900BF0122102189
:102730000348FEF765FA00BF3220FEF769F910BDC5
:102740000000024070B504460D462B46224629463D
:10275000204600F001F870BD2DE9F04104460D4619
:1027600016461F461149887A00F060F9002000F0F3
:102770003FF9E0B200F03CF9002000F039F9F0B286
:1027800000F036F90949087B00F050F9002000F00C
:102790002FF9E8B200F02CF9002000F029F9F8B286
:1027A00000F026F900F060F9BDE8F081D8000020C3
:1027B0002DE9FF4F83B081468A469346DDE91064D8
:1027C000404800880290A6F12000C6B204EBD47005
:1027D00009EB6000401E82B20AEB0400401E83B287
:1027E000514648460194FFF7B7FF129850BB0025A9
:1027F00025E00C2C07D106EB4600334901EB8000A5
:1028000010F8058004E0314800EB061010F8058050
:1028100000270DE008F0010018B1584600F074F9E7
:1028200002E0069800F070F94FEA6808781CC7B219
:1028300004EBD471B7EB610FECDB681CC5B2A542A9
:10284000D7DB2DE0002529E00C2C07D106EB460054
:102850001D4901EB800010F8058004E01B4800EBE7
:10286000061010F80580002711E01648A0F800B007
:1028700008F0010038B10AEB050291B209EB07023A
:1028800090B2FFF7C9FD4FEA6808781CC7B204EBA5
:10289000D471B7EB610FE8DB681CC5B2A542D3DB8E
:1028A0000849029808800A484088401E83B20848B8
:1028B0000088401E82B200210846FFF74DFF07B096
:1028C000BDE8F08F04000020CE360008423B00082F
:1028D000D80000202DE9FF4F83B0074691461E46E1
:1028E000109C4FF0000A002543E0701B401EC1B24F
:1028F0000A2000F067FEB9FBF0F00A21B0FBF1F20C
:1029000001FB1208BAF1000F1BD1701EA84218DD9E
:10291000B8F1000F13D100202021A346CDE9001407
:10292000029004EBDB71491001FB057188B2134979
:102930000B8813490A880499FFF73AFF17E04FF014
:10294000010A002108F13000C0B2A346CDE90141DF
:10295000009004EBDB71491001FB057188B2074957
:102960000B8807490A880499FFF722FF00BF681CFB
:10297000C5B2B542B9DB07B0BDE8F08F0600002054
:10298000040000202DE9FE4306460F4615461C466E
:10299000DDF828801DE013480088401EB04204DBAB
:1029A00010484088401EB84201DABDE8FE83207816
:1029B0008DE821010C4803880C48028839463046CE
:1029C000FFF7F6FE284605EBD07106EB61018EB2EB
:1029D000641C20787E2802DC20782028DBDA00BF07
:1029E000E3E70000D80000200600002004000020DB
:1029F00001B500BF002204210B48FEF701F900BF1A
:102A000000BF012208210848FEF7FAF800BF0121A3
:102A1000684600F01DFE00BF012204210248FEF7B7
:102A2000EFF800BF08BD00000000024001B500BF84
:102A3000002204210B48FEF7E3F800BF00BF00228C
:102A400008210848FEF7DCF800BF0121684600F0C5
:102A5000FFFD00BF012204210248FEF7D1F800BFAC
:102A600008BD00000000024010B50249087AFFF7D7
:102A7000DDFF10BDD800002070B505460C46284685
:102A8000FFF7D4FFE0B2FFF7B3FF70BD10B5044607
:102A90002A201C4948812B2088812C20088134B1B0
:102AA000012C0ED0022C16D0032C28D11DE0802042
:102AB00014490880A0204880C0213620FFF7DCFFA1
:102AC0001EE0A0200F49088080204880A0213620E9
:102AD000FFF7D2FF14E080200A490880A020488038
:102AE00000213620FFF7C8FF0AE0A0200549088032
:102AF0008020488060213620FFF7BEFF00E000BF45
:102B000000BF10BDD800002038B50446002000905A
:102B10002012009000BF002204210E48FEF770F83A
:102B200000BF00BF012208210A48FEF769F800BF74
:102B30000121684600F08CFDE0B20090012168465A
:102B400000F086FD00BF012204210248FEF758F87C
:102B500000BF38BD0000024000BFFEE7704770476D
:102B600000B587B04FF0C0624FF480010020FEF73F
:102B70004BFA00BF00BF002001900F48006840F0F2
:102B800001000D4908600846006800F0010001904E
:102B900000BF00BF00BF88150290022003900020F4
:102BA0000490032005900020069002A90348FDF739
:102BB00043FF07B000BD0000303802400000024073
:102BC00070B50546AC6B2068406820F003002168B2
:102BD0004860606D40F010006065012084F851008D
:102BE0002046FEF7BFFC70BD70B50446A56B2846B5
:102BF000FEF7CDFF70BDF8B50546AC6BFEF706F8E5
:102C000006462868006800F48070B0F5807F2DD0FB
:102C10002068406820F020002168486020684068F3
:102C200020F002002168486032466421204600F00E
:102C300023F818B1606D40F020006065A06850B9BD
:102C400000BF002000902068C06800902068806865
:102C5000009000BF00BF0020E086012084F85100F2
:102C6000606D18B12046FEF77DFCF8BD2046FEF7EA
:102C70008DFF00BFF9E700007CB504460E461546FF
:102C80003346012202212046009500F039F828B190
:102C9000606D40F02000606503207CBD1648006830
:102CA0001821B0FBF1F01549B0FBF1F04FF47A7147
:102CB000484301906068B0F5827F0DD13346002211
:102CC00080212046009500F01BF898B1606D40F01F
:102CD000200060650320E0E700BF019800B908E02C
:102CE0000198401E019020688068C0F3C010002841
:102CF000F3D100BF0020D0E70000002040420F00C9
:102D00002DE9F84F04460D4690461E46DDF8289002
:102D1000FDF77CFFA0EB0900371AFDF777FF82462D
:102D20002C480068C0F3CB307843009045E0701C1D
:102D3000002842D0FDF76AFFA0EB0A00B84200D29B
:102D4000A7BB2068406820F0E00021684860606808
:102D5000B0F5827F0DD1A068B0F5004F03D0A06818
:102D6000B0F5806F05D12068006820F04000216830
:102D70000860A06AB0F5005F0DD100BF2068006850
:102D800020F40050216808602068006840F400507A
:102D90002168086000BF012084F8510000BF0020B6
:102DA00084F8500000BF0320BDE8F88FFFE70098CB
:102DB00000B900270098401E0090206880682840D5
:102DC000A84201D1012000E000204045AFD1002001
:102DD000EAE7000000000020704710B5FDF71CFF77
:102DE00010BD00002DE9F04192B00446884615461A
:102DF0001E460027302106A8FDF7B4FA142101A8C9
:102E0000FDF7B0FA00BF002000902548006840F0B0
:102E10008050234908600846006800F08050009008
:102E200000BF00BF00BF002000901E48006820F4D3
:102E3000404040F400401B4908600846006800F428
:102E40004040009000BF00BF0120069000040790A2
:102E500002200C9041050D91CDF838800F9410950B
:102E6000119606A8FEF730F907461FB1012012B0EF
:102E7000BDE8F0810F200190022002900020039015
:102E80004FF48050049000200590022101A8FDF726
:102E90007BFF07460FB10120E9E70020E7E70000CC
:102EA00040380240007000400348006840F4700061
:102EB000014908607047000088ED00E010B553211B
:102EC00041F2873000F032F810BD30B504460025DD
:102ED00004E04FF47A7000F005F86D1CA542F8D3B9
:102EE00030BD000010B5024600230B4C21680FE0F6
:102EF000094C206888420BD0884201D9431A04E06B
:102F0000054C083424680444631A934200D300E05B
:102F1000EEE700BF10BD00002444014010B5024898
:102F2000FEF7EFFE10BD0000E828002070B5054652
:102F30000C46084808490860084644600021816042
:102F4000C560016180218161FEF73EFE0248FEF707
:102F50008FFE70BD00440140E828002010B50268D3
:102F6000244B98420BD0B0F1804F08D0224B9842AE
:102F700005D0224B984202D0214B984203D122F037
:102F800070024B681A431B4B984214D0B0F1804F2B
:102F900011D0194B98420ED0184B98420BD0184BB9
:102FA000984208D0174B984205D0174B984202D050
:102FB000164B984203D122F44072CB681A4322F098
:102FC00080034C6943EA040202608B68C3620B68A9
:102FD0008362084B984201D10B690363012343616B
:102FE000036903F001031BB1036923F001030361CB
:102FF00010BD000000000140000400400008004037
:10300000000C0040004001400044014000480140E5
:1030100070B50546AC6B0020E085E0842046FEF7E5
:103020002BFF70BD00BF00BF02680C3252E8002FBA
:1030300022F4907102680C3242E80013002BF3D1A5
:1030400000BF00BF00BF0268143252E8002F22F018
:1030500001010268143242E80013002BF3D100BFD3
:10306000016B01290ED100BF00BF02680C3252E88B
:10307000002F22F0100102680C3242E80013002BEE
:10308000F3D100BF202180F8421000210163704776
:1030900010B504462068C06820F040002168C86070
:1030A000202084F841002046FFF762F9002010BD7F
:1030B000F8B5044694F84200222875D1A068B0F50E
:1030C000805F0CD1206950B90025A66A206840684D
:1030D000C0F308003080A06A801CA06215E0A56AD9
:1030E0000026A068B0F5805F03D0A06828B92069E9
:1030F00018B920684068287004E02068406800F033
:103100007F002870A06A401CA062E08D401E80B243
:10311000E085002846D12068C06820F020002168A2
:10312000C8602068C06820F480702168C86020688A
:10313000406920F0010021684861202084F84200A5
:1031400000206063206B012826D10020206300BF8F
:1031500000BF21680C3151E8001F21F010002168E8
:103160000C3141E80002002AF3D100BF206800685A
:1031700000F0100010280AD100BF00200090206845
:103180000068009020684068009000BF00BFA18DDB
:103190002046FEF770FE02E02046FFF79BF8002075
:1031A000F8BD01E00020FBE70220F9E72DE9F84F28
:1031B00004462068006920F44050E1680843216813
:1031C00008612169A068084361690843E16908430F
:1031D00000902068C06849F20C6188430099084358
:1031E0002168C8602068406920F44070A1690843E4
:1031F0002168486176492068884203D07549206873
:10320000884203D1FDF798FE814602E0FDF784FE77
:103210008146E069B0F5004F6CD102206168A0FBE7
:10322000015003461920A9FB007001462A46384682
:10323000FDF721F86421B0FBF1F04FEA001A0220FB
:103240006168A0FB01510B461920A9FB00712A46B9
:103250003846FDF710F8834602206168A0FB015054
:1032600003461920A9FB00712A463846FDF703F8EA
:103270006421B0FBF1F000EBC00101EB0010ABEBFF
:103280008000322101EBC0006421B0FBF1F000F0BE
:10329000F8000AEB400A02206168A0FB01500346D7
:1032A0001920A9FB007001462A463846FCF7E3FFC7
:1032B000834602206168A0FB015003461920A9FB48
:1032C00000712A463846FCF7D6FF6421B0FBF1F0C6
:1032D00000EBC00101EB0010ABEB8000322101EBF1
:1032E000C0006421B0FBF1F000F0070050442168F9
:1032F00088606AE004206168A0FB01500346192041
:10330000A9FB007001462A463846FCF7B4FF824606
:1033100004206168A0FB015003461920A9FB00703E
:1033200001462A463846FCF7A6FF6421B0FBF1F0BF
:1033300000EBC00101EB0010AAEB8000322101EB91
:1033400000106421B0FBF1F000F0F00A0420616885
:10335000A0FB017003461920A9FB00513A462846FC
:10336000FCF789FF6421B0FBF1F00AEB001A04209E
:103370006168A0FB01510B461920A9FB00712A4688
:103380003846FCF778FF834604206168A0FB0150B3
:1033900003461920A9FB007001462A463846FCF76F
:1033A0006AFF6421B0FBF1F000EBC00101EB0010FB
:1033B000ABEB8000322101EB00106421B0FBF1F097
:1033C00000F00F00504421688860BDE8F88F0000CD
:1033D000001001400014014010B5034699629A851F
:1033E000DA8500205864222083F84200186928B149
:1033F0001868C06840F480701C68E0601868406914
:1034000040F001001C6860611868C06840F020004E
:103410001C68E060002010BD014691F841002128A1
:1034200028D18868B0F5805F0BD1086948B90A6A6D
:103430001088C0F308000B685860086A801C086296
:1034400005E00B6A581C086218780B685860C88C35
:10345000401E80B2C88458B90868C06820F0800057
:103460000B68D8600868C06840F040000B68D860FE
:10347000002070470220FCE710B50248FEF7FEFC72
:1034800010BD0000F829002000BFFEE702480068D8
:10349000C0F30220704700000CED00E010B50028DA
:1034A00004DB0A07130E054A135406E00A07140E3C
:1034B000034A00F00F031B1FD45410BD00E400E0CA
:1034C00018ED00E000BF704700B587B000BF00BF37
:1034D000002001901148006840F004000F49086086
:1034E0000846006800F00400019000BF00BF00BF64
:1034F0004FF40050029001200390049002200590A8
:1035000002A90748FDF798FA00BF012251030448B9
:10351000FDF776FB00BF07B000BD00003038024069
:103520000008024008B5FDF783FB0423022219219D
:10353000A820FFF757FCFFF7C1FCFFF7C5FF4FF4CA
:10354000E13000F097F8FCF7E5FF00F047F8FEF7F0
:10355000C9FFFFF705FB2EE04FF47A70FFF7B5FCCB
:103560000020FEF709FF0C20042341F66D620021C4
:1035700000900846FFF7AEF94FF47A70FFF7A5FC0C
:103580004FF6E070FEF7F8FE01200BA31022002199
:1035900000900846FFF7F6F94FF47A70FFF795FCB4
:1035A0001F20FEF7E9FE012004A310220021009055
:1035B0000846FFF7E7F9CFE74142430031323334A1
:1035C0003500000010B50246012000E050430B1EFC
:1035D000A1F10104E1B2F9D110BD000010B512480B
:1035E000124908604FF48270486000210F488160E2
:1035F000C160022101610121416149028161002113
:10360000C1610162416281620A21C162FDF7ABFFC3
:1036100006480068006840F04000044909680860F6
:10362000FF2000F005F810BD003001402000002010
:1036300001B582B04FF47A70012301AA02A900906B
:103640000248FEF789F89DF804000EBD2000002016
:1036500070B504460D462A4621460548FEF708FA8D
:1036600000BF034890F851000328FAD070BD000055
:103670002000002010B5044609480A4908600846A1
:10368000446000218160C160016181610C21416160
:10369000FEF768FD012204490248FEF705FE10BD51
:1036A00000100140F8290020120000204FF0407067
:1036B000E1EE100A70470000000000000000010267
:1036C00003040607080900000000010203040000CB
:1036D00000000000000000000000000004040404DA
:1036E00004040004000000140A0A000000000000A6
:1036F0000000000014143F140A3F0A0A00000004EE
:103700001E1505060C14150F0400000012150D0AF5
:10371000142C2A1200000000040A0A1E151509368E
:103720000000000202010000000000000000002074
:1037300010080808080808102000000204080808FB
:1037400008080804020000000004150E0E1504000D
:10375000000000000404041F040404000000000032
:103760000000000000000002020100000000001F35
:103770000000000000000000000000000000000247
:103780000000001008080804040202020100000002
:103790000E1111111111110E000000000406040495
:1037A0000404040E000000000E1111080402011FA1
:1037B000000000000E11100C1010110E000000008F
:1037C000080C0A0A091E0818000000001F01010F5A
:1037D0001010110E000000000E09010F1111110E42
:1037E000000000001F090804040404040000000095
:1037F0000E11110E1111110E000000000E11111109
:103800001E10120E00000000000004000000000462
:10381000000000000000000400000004040000207C
:1038200010080402040810200000000000001F001F
:10383000001F00000000000204081020100804020D
:10384000000000000E111108040400040000000034
:103850000E111915151D011E0000000004040C0AAC
:103860000A1E1233000000000F12120E1212120F65
:10387000000000001E1101010101110E00000000F6
:103880000F1212121212120F000000001F120A0E65
:103890000A02121F000000001F120A0E0A0202078D
:1038A000000000001C1201013911120C0000000080
:1038B0003312121E12121233000000001F040404FF
:1038C0000404041F000000003E0808080808080956
:1038D0000700000037120A060A0A1237000000002B
:1038E000070202020202223F000000001B1B1B1BFA
:1038F00015151515000000003B1216161A1A12179E
:10390000000000000E1111111111110E0000000035
:103910000F12120E02020207000000000E11111118
:103920001117190E180000000F12120E0A1212378A
:10393000000000001E1101060810110F0000000019
:103940001F1504040404040E0000000033121212B8
:103950001212120C000000003312120A0A0C0404A6
:10396000000000001515150E0A0A0A0A00000000E2
:103970001B0A0A04040A0A1B000000001B0A0A04AE
:103980000404040E000000001F0908040402121FB2
:103990000000001C04040404040404041C000002CD
:1039A00002020404080808100000000E08080808B5
:1039B000080808080E0000040A00000000000000CB
:1039C000000000000000000000000000003F0004B4
:1039D0000000000000000000000000000000000CDB
:1039E000121C123C000000000302020E1212120E02
:1039F000000000000000001C1202021C0000000079
:103A00001810101C1212123C000000000000000CE4
:103A1000121E021C000000003804041E0404041ED0
:103A2000000000000000003C120C021E221C0000DE
:103A30000302020E121212370000000004000006FA
:103A40000404040E000000000800000C0808080828
:103A5000080700000302023A0A0E123700000000B5
:103A6000070404040404041F000000000000000F09
:103A700015151515000000000000000F1212123776
:103A8000000000000000000C1212120C00000000E8
:103A90000000000F1212120E020700000000001CAE
:103AA0001212121C103800000000001B0602020750
:103AB000000000000000001E020C101E00000000AC
:103AC0000004040E04040418000000000000001BA1
:103AD0001212123C0000000000000037120A0C0411
:103AE0000000000000000015150E0A0A000000008A
:103AF0000000001B0A040A1B000000000000003741
:103B0000120A0C04040300000000001E0804041E36
:103B10000000001808080804080808081800080829
:103B2000080808080808080808080006040404082B
:103B30000404040406000225180000000000000030
:103B40000000000000000000000000000000000075
:103B500000000000000808080808080800001818FD
:103B6000000000486C24120000000000000000006B
:103B700000000000002424247F1212127F1212126F
:103B800000000000081C2A2A0A0C1828282A2A1CCF
:103B9000080800000022251515152A5854545422EF
:103BA00000000000000C1212120A76252911916EF5
:103BB00000000006060403000000000000000000F2
:103BC0000000004020101008080808080810102005
:103BD000400000020408081010101010100808041B
:103BE00002000000000008086B1C1C6B08080000A5
:103BF000000000000000080808087F080808080006
:103C000000000000000000000000000000000606A8
:103C100004030000000000000000FE00000000009F
:103C20000000000000000000000000000000060688
:103C3000000000008040402020101008080404020A
:103C4000020000000018244242424242424224182C
:103C50000000000000080E08080808080808083ED0
:103C600000000000003C4242422020100804427E36
:103C700000000000003C4242201820404042221C2C
:103C80000000000000203028242422227E202078FA
:103C900000000000007E0202021A26404042221C60
:103CA0000000000000382402021A26424242241872
:103CB00000000000007E22221010080808080808F2
:103CC00000000000003C4242422418244242423C90
:103CD0000000000000182442424264584040241C66
:103CE0000000000000000000181800000000181874
:103CF00000000000000000000008000000000008B4
:103D000008040000004020100804020408102040AD
:103D100000000000000000007F0000007F000000A5
:103D200000000000000204081020402010080402D7
:103D300000000000003C42424640201010001818CD
:103D400000000000001C225A555555552D42221CDA
:103D500000000000000808181414243C224242E726
:103D600000000000001F2222221E22424242221F87
:103D700000000000007C4242010101010142221CBE
:103D800000000000001F2242424242424242221FE3
:103D900000000000003F4212121E12120242423F77
:103DA00000000000003F4212121E1212020202071F
:103DB00000000000003C2222010101712122221C8E
:103DC0000000000000E7424242427E42424242E797
:103DD00000000000003E0808080808080808083E1F
:103DE00000000000007C10101010101010101010B7
:103DF000110F0000007722120A0E0A1212222277F7
:103E00000000000000070202020202020202427FDA
:103E1000000000000077363636362A2A2A2A2A6B16
:103E20000000000000E346464A4A5252526262478E
:103E300000000000001C2241414141414141221C3F
:103E400000000000003F424242423E0202020207DE
:103E500000000000001C2241414141414D53321CF1
:103E600060000000003F4242423E1212222242C73E
:103E700000000000007C4242020418204042423E02
:103E800000000000007F4908080808080808081C0E
:103E90000000000000E74242424242424242423CAD
:103EA0000000000000E742422224241414180808ED
:103EB00000000000006B494949495555362222222D
:103EC0000000000000E7422424181818242442E7C8
:103ED0000000000000772222141408080808081CBB
:103EE00000000000007E2120101008040442423F20
:103EF00000000078080808080808080808080808EA
:103F00007800000002020404080808101020202095
:103F10004040001E10101010101010101010101043
:103F20001E000038440000000000000000000000F7
:103F30000000000000000000000000000000000081
:103F400000FF000608000000000000000000000064
:103F50000000000000000000003C4278444242FCA7
:103F60000000000000030202021A26424242261A02
:103F70000000000000000000003844020202443843
:103F8000000000000060404040784442424264D853
:103F90000000000000000000003C427E0202423CA3
:103FA0000000000000F08808087E08080808083EA5
:103FB0000000000000000000007C22221C023C42A5
:103FC000423C000000030202023A4642424242E7FB
:103FD00000000000000C0C00000E08080808083E55
:103FE0000000000000303000003820202020202079
:103FF000221E0000000302020272120A1612227729
:1040000000000000000E0808080808080808083E1C
:104010000000000000000000007F9292929292B790
:104020000000000000000000003B4642424242E720
:104030000000000000000000003C42424242423CBE
:104040000000000000000000001B26424242221E29
:104050000207000000000000007844424242447819
:1040600040E000000000000000774C040404041F3E
:104070000000000000000000007C42023C40423E84
:104080000000000000000008083E0808080808308A
:10409000000000000000000000634242424262DC77
:1040A000000000000000000000E74224241408087B
:1040B000000000000000000000EB49495555222295
:1040C0000000000000000000007624181818246E7C
:1040D000000000000000000000E74224241418083B
:1040E0000807000000000000007E22100808447E3F
:1040F000000000C020202020201020202020202090
:10410000C00010101010101010101010101010100F
:104110001010000608080808081008080808080811
:1041200006000C32C2000000000000000000000089
:104130000000C9EE000027FC140414A481104208FA
:104140004040104017FC2040E0E0215022482C461F
:1041500020400040DBDA1104112411241124112421
:10416000FD24112411241124112411241D24E124DF
:10417000422402040404CAD00200010000007FFCB3
:104180000100010001003FF8210821082108210851
:104190002128211001000100C8AB000000000180AF
:1041A00002400430180860061FF9010001000100F8
:1041B0003FF80100010001007FFEB6AF00000000E3
:1041C00000203E20007C002200227F2210221022AC
:1041D00012221222224223423D82009CB5E70000B7
:1041E000010001001FF0610C410441047FFC410407
:1041F000410441047FFC01000102010201FCD7D30C
:10420000000000003FF80010006000800100008006
:104210007FFE004000400020002000201840078062
:10422000BCBC10201020102013FEFC2010201020F9
:1042300015FC18843088D048105010201050518838
:104240002606CAF501000120011001107FFC038041
:104250000540054009201110210841048102010098
:1042600001000100D3D002000200FFFE04000400A0
:104270000FF0081018102FF0481088100FF00810D9
:10428000081008500820CFDE00007BF84A085208CA
:1042900053F8620852084BF84A444A486A305220A0
:1042A0004210428843064200B9AB0080048004807B
:1042B00008400840102020104208820604000440F4
:1042C000082010203FF010100000CBBE00003FF887
:1042D000000800087FE8000800081F881088108880
:1042E000108810881F88108800280010BBB6008036
:1042F0000080FC8004FC050449082A40144010405A
:1043000028A024A045108110020804040802D3AD9F
:1043100000002080133C122402240224F2241224E0
:10432000122412B4132812201020282047FE000067
:10433000C4FA0900090011FC32045448995011488C
:104340001244144411401080020051045112901282
:104350000FF0B4BF00000020102013FE2020262400
:104360004A247A241224222423FC7C2000220422C2
:104370007822003CC9AB0000000004000FF01020C0
:1043800020207FFC20842084208420843FF820008B
:10439000200220021FFECCEE00000000204023FE81
:1043A000204079FC220423FC220423FC220423FC69
:1043B0003A0465FA01980204B3E400000100010028
:1043C0007FFE02200410040808043FFC044204405D
:1043D0000440044208421042607EBED80000000043
:1043E000207E3E804880488048FE48827F82088246
:1043F0000C8214FA12842280218040FED0CE00006C
:1044000000007F842208223022C0220222047FC8BA
:10441000223022C222022204220822304040BBADB8
:10442000000000007FFE00000FF0111011101110AD
:1044300051125FF25112511251124FF240027FFCA1
:10444000D4B2000000007FFE47E24812481247E263
:104450004FF2501250125112511242924472580AA5
:104460003FFCCDBC000000003FFE440247F24C225E
:104470005362408243625E1A41824062430240C2FC
:1044800040223FFCC6AC00000040204020402040BD
:104490003FFE2000200020003FE0201020102010D0
:1044A000201040104010CFD4000000003FFC20043A
:1044B00020043FFC200420041FF82444144814481E
:1044C00014480C5004407FFECABE000000003FFCB0
:1044D0000000000000007FFE00800890088810881F
:1044E00010842084208240820780B2CB000000200C
:1044F00008207FFE002000783F88110808900920DE
:104500007FFE018003400D30310C4002B5A5000054
:104510000010081004203FF8210421043FFC21046E
:1045200021043FF801007FFE010001000100D6D008
:1045300000000100010001003FFC210421042104CE
:104540002104210421043FFC0100010001000100BD
:10455000D3A20000000008207FFE082009200100EF
:104560003FF82108210821081FF4014002200C1007
:10457000700ECEC400000100010000803F7C0810D6
:104580000810041004200220024001800180026013
:104590001C18E006D7DB00000000102011FE2202EC
:1045A000220249FC5800300013FE252879240124FA
:1045B0000D24722202A2BACF000000000180024046
:1045C0000430180860061FF800001FF820042004BB
:1045D0002004200420041FF8C1C1000001000100D4
:1045E0007FFE00003FF820083FF83FF8400647C232
:1045F0004824082008221022603EB6C800000000AF
:1046000000803FFE44105FFC4410441043F0400023
:104610005FF84408423041C04360BC1EB2E2000073
:10462000000067C2145205520552C5522552055268
:10463000055215521752228222424442483ECAD4A1
:10464000000000002014101417FE0012001060106B
:1046500013F0109010901090149214EA1F0A0006A4
:10466000B3CC0000000019FE7202120212027DFC9F
:1046700018001BFE3420502053FE10201020102064
:1046800013FED0F20000000000803FFE400047FC17
:104690004208413040C05FFE4042404240444048F2
:1046A00040404440B5F70000000023FE122202FA09
:1046B0000222E22212FE1272128A128A128A16BA9A
:1046C0001A421202040EB9E20000010001041108AE
:1046D0000908091009207FFE0440044004400440FA
:1046E000084208421042607CB0E60000000048FE2C
:1046F0004900490049007EFE4182414479444528F1
:1047000045284510452846440382C8A800001000EB
:10471000100013FC7D0411041904188434885048D7
:10472000505010201050108813041402CBF90000D0
:1047300000003F7C204020403E40227E2244224414
:1047400022443E8420842084408441044204C6C123
:1047500000003FF8200820083FF8241022202FF8FE
:10476000222022203FFC22204220442084200820B6
:10477000C4BB04407FFC04401FF010101FF0101059
:104780001FF00400FFFE11103FF8D1161150112048
:104790000100D0FD2080108010FE0100FE0021FCF1
:1047A00020243C2424A024A024BC24A024A04560D0
:1047B000553E8A00D7AA202020202020FDFC402042
:1047C000504093FEFC40108011FC1C04F0885050B7
:1047D000102010101010BFAA00007FFC0820082035
:1047E000082008200820FFFE0820082008200820B4
:1047F0001020102020204020D4B4000027FE1420D8
:10480000144085FC450445FC150415FC2524E420D2
:1048100024A829242A2230A00040D2BA00802040B7
:1048200017FE11208120423C424416641294234812
:10483000E24822302220225022880306BEA70FE041
:10484000082008200FE0082008200FE000007EFC70
:10485000428442847EFC428442847EFC4284CDF8C1
:1048600000007FFC40044004421452944A54442403
:1048700044244A544A545294610440044014400869
:10488000D5BE1020082008207E20003E04204420B1
:10489000442025FC290429040F04F104410401FCEF
:1048A0000104B0B410401020102013FEFA0214448A
:1048B00010401BFE3088D088110810D010201050F6
:1048C00050882304BCFC201020103B7C211441FEA6
:1048D0007A14A27C2710F97C251025FE22102A10BC
:1048E000350028FE0000D0A310401020102011FE3B
:1048F000FC00108831043A025488508890501050BF
:104900001020105010881306D7BC014041202120F0
:1049100023FE022016201BFC1220222023FCE22072
:104920002220222023FE22000200B4A520202020E5
:10493000782049FC91247D24552455247DFC552460
:1049400054207C28542457FE45028C00C3FE1110CD
:10495000111017FC1110FC0013F8120817F81A08B0
:1049600033F8D04017FC10A0111052082406C9EEED
:104970000000000000001000000800080C7FFC048C
:10498000401001C8A002186042301832231812C328
:104990000014030004030C047FF0080F80080B4090
:1049A00078136018332018631818831C190308182B
:1049B0000300000300000000DBDA0000000000003C
:1049C00004100C04180C04108C04108C04108C04BB
:1049D000108C04D08C3F108C04108C04108C0410AC
:1049E0008C04108C04108C04108C05F08C0E208C20
:1049F00078208C20408C00808C01000C02000C0080
:104A00000000CAD0000000000000003000001800C4
:104A100000180800001C1FFFE00018000018200705
:104A2000FFF004182004182004182004182004188B
:104A3000200418200418200418200418200418E06A
:104A4000041840001800001800000000D6D0000034
:104A50000000000000000000000000180000180026
:104A60000018000018003FFFFE301806301806300E
:104A700018063018063018063FFFFE3018060018DA
:104A800000001800001800001800001800000000C6
:104A9000000000000000CEC4000000000000000084
:104AA00000003800001C00000600FFFFFF06003079
:104AB0000600300300600300600180C000C1800078
:104AC000E300003600001C0000770003C1E01E0078
:104AD0003C60000700000000000000000000000033
:104AE000B2E20000000000000000000000004000F2
:104AF0000321FF33398333118333019B33C19B334C
:104B0000719B33199B33019B33019B33119B3319E9
:104B1000B333303033306C0330C6036383032E016C
:104B2000BE000000000000000000CAD40000000029
:104B300000000000000000004000D83000CE180047
:104B4000C21C00C001FFFF0000C0F800C01800C078
:104B500019FFC01818401818601918601B18611E3A
:104B600018311C1FB139F01910000F0000000000AF
:104B700000000000D7D6000000000006000000037F
:104B800000000000C0000001C0C0000107C000011B
:104B9000FF00021FFE0007F01C0007C070000F009E
:104BA000E0000E03F0001C0FF0003C0F70003C0012
:104BB000E0001800C0000000C0000000C0000000BD
:104BC000600000002000000037000001FF00007FAF
:104BD000F80007F830001F8030000080300000C06F
:104BE0003000006060000018E000000FC000000608
:104BF000000000000000CCE5000000000000000004
:104C0000000000C0000000E0002001B800703FF884
:104C10000061FFC000C3030001C60600038C06004C
:104C200003080C0006080C000E18183F1E101BF39A
:104C30001F903F0700803C1C0190707C019060FE3B
:104C400001A0C3F801A00FD803A008180360001842
:104C50000340001803C00018038000180300001868
:104C600000000018000000100000003000000030BC
:104C70000000000000000000B2E2000000000000A0
:104C800000000000000000000000020C1008071FD8
:104C9000F80403BFF00201BC300303EC3003015CF5
:104CA000600300D8600300D860038098620361B895
:104CB000430771B14306313243063376C3063A6483
:104CC000C7063EECC0063E78C0063C3040067C700D
:104CD000000678E060067BFFF006F7C00006E400FF
:104CE000000640000006000000060000007C0000F6
:104CF0008FF000007C0000000000CAD4000000001B
:104D0000000000000000000000003F0000007F8065
:104D100000000180000000C0000000C0000000CEC4
:104D2000038000CFFFC000DD41800FFE0007FFFCC5
:104D3000000C00F000180FC03E19FF40F311BC60DA
:104D400083307FE003B1FE20033380200370003006
:104D5000036000100360001807C0000C07C00004C7
:104D600007800002010000030000000100000000B5
:104D70000000000000000000000000000006101607
:104D800000061016A44D00080000002020000000BE
:104D9000D0010008C44D0008200000208030000031
:104DA000EC0100080024F4000000FFFF00000000F8
:104DB00000000000000000000000000010000000E3
:044DC00001000000EE
:040000050800019559
:00000001FF
